{
  "contractName": "MasterEngineer",
  "abi": [
    {
      "inputs": [
        {
          "internalType": "contract ShuttleToken",
          "name": "_shuttle",
          "type": "address"
        },
        {
          "internalType": "address",
          "name": "_devaddr",
          "type": "address"
        },
        {
          "internalType": "address",
          "name": "_feeAddress",
          "type": "address"
        },
        {
          "internalType": "uint256",
          "name": "_shuttlePerBlock",
          "type": "uint256"
        },
        {
          "internalType": "uint256",
          "name": "_startBlock",
          "type": "uint256"
        }
      ],
      "stateMutability": "nonpayable",
      "type": "constructor"
    },
    {
      "anonymous": false,
      "inputs": [
        {
          "indexed": true,
          "internalType": "address",
          "name": "user",
          "type": "address"
        },
        {
          "indexed": true,
          "internalType": "uint256",
          "name": "pid",
          "type": "uint256"
        },
        {
          "indexed": false,
          "internalType": "uint256",
          "name": "amount",
          "type": "uint256"
        }
      ],
      "name": "Deposit",
      "type": "event"
    },
    {
      "anonymous": false,
      "inputs": [
        {
          "indexed": true,
          "internalType": "address",
          "name": "user",
          "type": "address"
        },
        {
          "indexed": true,
          "internalType": "uint256",
          "name": "pid",
          "type": "uint256"
        },
        {
          "indexed": false,
          "internalType": "uint256",
          "name": "amount",
          "type": "uint256"
        }
      ],
      "name": "EmergencyWithdraw",
      "type": "event"
    },
    {
      "anonymous": false,
      "inputs": [
        {
          "indexed": true,
          "internalType": "address",
          "name": "previousOwner",
          "type": "address"
        },
        {
          "indexed": true,
          "internalType": "address",
          "name": "newOwner",
          "type": "address"
        }
      ],
      "name": "OwnershipTransferred",
      "type": "event"
    },
    {
      "anonymous": false,
      "inputs": [
        {
          "indexed": true,
          "internalType": "address",
          "name": "user",
          "type": "address"
        },
        {
          "indexed": true,
          "internalType": "address",
          "name": "newAddress",
          "type": "address"
        }
      ],
      "name": "SetDevAddress",
      "type": "event"
    },
    {
      "anonymous": false,
      "inputs": [
        {
          "indexed": true,
          "internalType": "address",
          "name": "user",
          "type": "address"
        },
        {
          "indexed": true,
          "internalType": "address",
          "name": "newAddress",
          "type": "address"
        }
      ],
      "name": "SetFeeAddress",
      "type": "event"
    },
    {
      "anonymous": false,
      "inputs": [
        {
          "indexed": true,
          "internalType": "address",
          "name": "user",
          "type": "address"
        },
        {
          "indexed": false,
          "internalType": "uint256",
          "name": "shuttlePerBlock",
          "type": "uint256"
        }
      ],
      "name": "UpdateCustomEmissionRate",
      "type": "event"
    },
    {
      "anonymous": false,
      "inputs": [
        {
          "indexed": true,
          "internalType": "address",
          "name": "caller",
          "type": "address"
        },
        {
          "indexed": false,
          "internalType": "uint256",
          "name": "previousAmount",
          "type": "uint256"
        },
        {
          "indexed": false,
          "internalType": "uint256",
          "name": "newAmount",
          "type": "uint256"
        }
      ],
      "name": "UpdateEmissionRate",
      "type": "event"
    },
    {
      "anonymous": false,
      "inputs": [
        {
          "indexed": true,
          "internalType": "address",
          "name": "user",
          "type": "address"
        },
        {
          "indexed": true,
          "internalType": "uint256",
          "name": "pid",
          "type": "uint256"
        },
        {
          "indexed": false,
          "internalType": "uint256",
          "name": "amount",
          "type": "uint256"
        }
      ],
      "name": "Withdraw",
      "type": "event"
    },
    {
      "inputs": [],
      "name": "BONUS_MULTIPLIER",
      "outputs": [
        {
          "internalType": "uint256",
          "name": "",
          "type": "uint256"
        }
      ],
      "stateMutability": "view",
      "type": "function",
      "constant": true
    },
    {
      "inputs": [],
      "name": "EMISSION_REDUCTION_PERIOD_BLOCKS",
      "outputs": [
        {
          "internalType": "uint256",
          "name": "",
          "type": "uint256"
        }
      ],
      "stateMutability": "view",
      "type": "function",
      "constant": true
    },
    {
      "inputs": [],
      "name": "EMISSION_REDUCTION_RATE_PER_PERIOD",
      "outputs": [
        {
          "internalType": "uint256",
          "name": "",
          "type": "uint256"
        }
      ],
      "stateMutability": "view",
      "type": "function",
      "constant": true
    },
    {
      "inputs": [],
      "name": "MINIMUM_EMISSION_RATE",
      "outputs": [
        {
          "internalType": "uint256",
          "name": "",
          "type": "uint256"
        }
      ],
      "stateMutability": "view",
      "type": "function",
      "constant": true
    },
    {
      "inputs": [],
      "name": "devaddr",
      "outputs": [
        {
          "internalType": "address",
          "name": "",
          "type": "address"
        }
      ],
      "stateMutability": "view",
      "type": "function",
      "constant": true
    },
    {
      "inputs": [],
      "name": "feeAddress",
      "outputs": [
        {
          "internalType": "address",
          "name": "",
          "type": "address"
        }
      ],
      "stateMutability": "view",
      "type": "function",
      "constant": true
    },
    {
      "inputs": [],
      "name": "lastReductionPeriodIndex",
      "outputs": [
        {
          "internalType": "uint256",
          "name": "",
          "type": "uint256"
        }
      ],
      "stateMutability": "view",
      "type": "function",
      "constant": true
    },
    {
      "inputs": [],
      "name": "owner",
      "outputs": [
        {
          "internalType": "address",
          "name": "",
          "type": "address"
        }
      ],
      "stateMutability": "view",
      "type": "function",
      "constant": true
    },
    {
      "inputs": [
        {
          "internalType": "contract IBEP20",
          "name": "",
          "type": "address"
        }
      ],
      "name": "poolExistence",
      "outputs": [
        {
          "internalType": "bool",
          "name": "",
          "type": "bool"
        }
      ],
      "stateMutability": "view",
      "type": "function",
      "constant": true
    },
    {
      "inputs": [
        {
          "internalType": "uint256",
          "name": "",
          "type": "uint256"
        }
      ],
      "name": "poolInfo",
      "outputs": [
        {
          "internalType": "contract IBEP20",
          "name": "lpToken",
          "type": "address"
        },
        {
          "internalType": "uint256",
          "name": "allocPoint",
          "type": "uint256"
        },
        {
          "internalType": "uint256",
          "name": "lastRewardBlock",
          "type": "uint256"
        },
        {
          "internalType": "uint256",
          "name": "accShuttlePerShare",
          "type": "uint256"
        },
        {
          "internalType": "uint16",
          "name": "withdrawFeeBP",
          "type": "uint16"
        }
      ],
      "stateMutability": "view",
      "type": "function",
      "constant": true
    },
    {
      "inputs": [],
      "name": "renounceOwnership",
      "outputs": [],
      "stateMutability": "nonpayable",
      "type": "function"
    },
    {
      "inputs": [],
      "name": "shuttle",
      "outputs": [
        {
          "internalType": "contract ShuttleToken",
          "name": "",
          "type": "address"
        }
      ],
      "stateMutability": "view",
      "type": "function",
      "constant": true
    },
    {
      "inputs": [],
      "name": "shuttlePerBlock",
      "outputs": [
        {
          "internalType": "uint256",
          "name": "",
          "type": "uint256"
        }
      ],
      "stateMutability": "view",
      "type": "function",
      "constant": true
    },
    {
      "inputs": [],
      "name": "startBlock",
      "outputs": [
        {
          "internalType": "uint256",
          "name": "",
          "type": "uint256"
        }
      ],
      "stateMutability": "view",
      "type": "function",
      "constant": true
    },
    {
      "inputs": [],
      "name": "totalAllocPoint",
      "outputs": [
        {
          "internalType": "uint256",
          "name": "",
          "type": "uint256"
        }
      ],
      "stateMutability": "view",
      "type": "function",
      "constant": true
    },
    {
      "inputs": [
        {
          "internalType": "address",
          "name": "newOwner",
          "type": "address"
        }
      ],
      "name": "transferOwnership",
      "outputs": [],
      "stateMutability": "nonpayable",
      "type": "function"
    },
    {
      "inputs": [
        {
          "internalType": "uint256",
          "name": "",
          "type": "uint256"
        },
        {
          "internalType": "address",
          "name": "",
          "type": "address"
        }
      ],
      "name": "userInfo",
      "outputs": [
        {
          "internalType": "uint256",
          "name": "amount",
          "type": "uint256"
        },
        {
          "internalType": "uint256",
          "name": "rewardDebt",
          "type": "uint256"
        }
      ],
      "stateMutability": "view",
      "type": "function",
      "constant": true
    },
    {
      "inputs": [],
      "name": "poolLength",
      "outputs": [
        {
          "internalType": "uint256",
          "name": "",
          "type": "uint256"
        }
      ],
      "stateMutability": "view",
      "type": "function",
      "constant": true
    },
    {
      "inputs": [
        {
          "internalType": "uint256",
          "name": "_allocPoint",
          "type": "uint256"
        },
        {
          "internalType": "contract IBEP20",
          "name": "_lpToken",
          "type": "address"
        },
        {
          "internalType": "uint16",
          "name": "_withdrawFeeBP",
          "type": "uint16"
        },
        {
          "internalType": "bool",
          "name": "_withUpdate",
          "type": "bool"
        }
      ],
      "name": "add",
      "outputs": [],
      "stateMutability": "nonpayable",
      "type": "function"
    },
    {
      "inputs": [
        {
          "internalType": "uint256",
          "name": "_pid",
          "type": "uint256"
        },
        {
          "internalType": "uint256",
          "name": "_allocPoint",
          "type": "uint256"
        },
        {
          "internalType": "uint16",
          "name": "_withdrawFeeBP",
          "type": "uint16"
        },
        {
          "internalType": "bool",
          "name": "_withUpdate",
          "type": "bool"
        }
      ],
      "name": "set",
      "outputs": [],
      "stateMutability": "nonpayable",
      "type": "function"
    },
    {
      "inputs": [
        {
          "internalType": "uint256",
          "name": "_from",
          "type": "uint256"
        },
        {
          "internalType": "uint256",
          "name": "_to",
          "type": "uint256"
        }
      ],
      "name": "getMultiplier",
      "outputs": [
        {
          "internalType": "uint256",
          "name": "",
          "type": "uint256"
        }
      ],
      "stateMutability": "pure",
      "type": "function",
      "constant": true
    },
    {
      "inputs": [
        {
          "internalType": "uint256",
          "name": "_pid",
          "type": "uint256"
        },
        {
          "internalType": "address",
          "name": "_user",
          "type": "address"
        }
      ],
      "name": "pendingShuttle",
      "outputs": [
        {
          "internalType": "uint256",
          "name": "",
          "type": "uint256"
        }
      ],
      "stateMutability": "view",
      "type": "function",
      "constant": true
    },
    {
      "inputs": [],
      "name": "massUpdatePools",
      "outputs": [],
      "stateMutability": "nonpayable",
      "type": "function"
    },
    {
      "inputs": [
        {
          "internalType": "uint256",
          "name": "_pid",
          "type": "uint256"
        }
      ],
      "name": "updatePool",
      "outputs": [],
      "stateMutability": "nonpayable",
      "type": "function"
    },
    {
      "inputs": [
        {
          "internalType": "uint256",
          "name": "_pid",
          "type": "uint256"
        },
        {
          "internalType": "uint256",
          "name": "_amount",
          "type": "uint256"
        }
      ],
      "name": "deposit",
      "outputs": [],
      "stateMutability": "nonpayable",
      "type": "function"
    },
    {
      "inputs": [
        {
          "internalType": "uint256",
          "name": "_pid",
          "type": "uint256"
        },
        {
          "internalType": "uint256",
          "name": "_amount",
          "type": "uint256"
        }
      ],
      "name": "withdraw",
      "outputs": [],
      "stateMutability": "nonpayable",
      "type": "function"
    },
    {
      "inputs": [
        {
          "internalType": "uint256",
          "name": "_pid",
          "type": "uint256"
        }
      ],
      "name": "emergencyWithdraw",
      "outputs": [],
      "stateMutability": "nonpayable",
      "type": "function"
    },
    {
      "inputs": [
        {
          "internalType": "address",
          "name": "_devaddr",
          "type": "address"
        }
      ],
      "name": "dev",
      "outputs": [],
      "stateMutability": "nonpayable",
      "type": "function"
    },
    {
      "inputs": [
        {
          "internalType": "address",
          "name": "_feeAddress",
          "type": "address"
        }
      ],
      "name": "setFeeAddress",
      "outputs": [],
      "stateMutability": "nonpayable",
      "type": "function"
    },
    {
      "inputs": [],
      "name": "updateEmissionRate",
      "outputs": [],
      "stateMutability": "nonpayable",
      "type": "function"
    },
    {
      "inputs": [
        {
          "internalType": "uint256",
          "name": "_shuttlePerBlock",
          "type": "uint256"
        }
      ],
      "name": "updateCustomEmissionRate",
      "outputs": [],
      "stateMutability": "nonpayable",
      "type": "function"
    }
  ],
  "bytecode": "0x6080604052600060065560006009553480156200001b57600080fd5b50604051620035be380380620035be833981810160405260a08110156200004157600080fd5b81019080805190602001909291908051906020019092919080519060200190929190805190602001909291908051906020019092919050505060006200008c6200020d60201b60201c565b9050806000806101000a81548173ffffffffffffffffffffffffffffffffffffffff021916908373ffffffffffffffffffffffffffffffffffffffff1602179055508073ffffffffffffffffffffffffffffffffffffffff16600073ffffffffffffffffffffffffffffffffffffffff167f8be0079c531659141344cd1fd0a4f28419497f9722a3daafe3b4186f6b6457e060405160405180910390a3506001808190555084600260006101000a81548173ffffffffffffffffffffffffffffffffffffffff021916908373ffffffffffffffffffffffffffffffffffffffff16021790555083600360006101000a81548173ffffffffffffffffffffffffffffffffffffffff021916908373ffffffffffffffffffffffffffffffffffffffff16021790555082600560006101000a81548173ffffffffffffffffffffffffffffffffffffffff021916908373ffffffffffffffffffffffffffffffffffffffff1602179055508160048190555080600a81905550505050505062000215565b600033905090565b61339980620002256000396000f3fe608060405234801561001057600080fd5b50600436106101e55760003560e01c80638705fcd41161010f578063cbd258b5116100a2578063d963842211610071578063d963842214610763578063e2bbb158146107b5578063f2fde38b146107ed578063fff5c3f614610831576101e5565b8063cbd258b514610655578063cf6679a6146106af578063d49e77cd14610711578063d4adafdf14610745576101e5565b80638dbb1e3a116100de5780638dbb1e3a1461057857806393f1a40b146105c45780639d677ec11461062d578063b7eee1f114610637576101e5565b80638705fcd41461049e5780638aa28550146104e25780638d88a90e146105005780638da5cb5b14610544576101e5565b806348cd4cb111610187578063630b5ba111610156578063630b5ba1146104045780636a9a76601461040e578063715018a61461042c57806384e82a3314610436576101e5565b806348cd4cb11461036c57806351eb05a61461038a5780635312ea8e146103b857806361e0c468146103e6576101e5565b80631526fe27116101c35780631526fe271461026a57806317caf6f1146102e25780634127535814610300578063441a3e7014610334576101e5565b8063081e3eda146101ea5780630c0a15f9146102085780631493e66f1461023c575b600080fd5b6101f261084f565b6040518082815260200191505060405180910390f35b61021061085c565b604051808273ffffffffffffffffffffffffffffffffffffffff16815260200191505060405180910390f35b6102686004803603602081101561025257600080fd5b8101908080359060200190929190505050610882565b005b6102966004803603602081101561028057600080fd5b81019080803590602001909291905050506109aa565b604051808673ffffffffffffffffffffffffffffffffffffffff1681526020018581526020018481526020018381526020018261ffff1681526020019550505050505060405180910390f35b6102ea610a1b565b6040518082815260200191505060405180910390f35b610308610a21565b604051808273ffffffffffffffffffffffffffffffffffffffff16815260200191505060405180910390f35b61036a6004803603604081101561034a57600080fd5b810190808035906020019092919080359060200190929190505050610a47565b005b610374610e36565b6040518082815260200191505060405180910390f35b6103b6600480360360208110156103a057600080fd5b8101908080359060200190929190505050610e3c565b005b6103e4600480360360208110156103ce57600080fd5b8101908080359060200190929190505050611197565b005b6103ee611353565b6040518082815260200191505060405180910390f35b61040c61135f565b005b61041661138c565b6040518082815260200191505060405180910390f35b610434611392565b005b61049c6004803603608081101561044c57600080fd5b8101908080359060200190929190803573ffffffffffffffffffffffffffffffffffffffff169060200190929190803561ffff169060200190929190803515159060200190929190505050611518565b005b6104e0600480360360208110156104b457600080fd5b81019080803573ffffffffffffffffffffffffffffffffffffffff16906020019092919050505061189d565b005b6104ea6119fe565b6040518082815260200191505060405180910390f35b6105426004803603602081101561051657600080fd5b81019080803573ffffffffffffffffffffffffffffffffffffffff169060200190929190505050611a03565b005b61054c611b64565b604051808273ffffffffffffffffffffffffffffffffffffffff16815260200191505060405180910390f35b6105ae6004803603604081101561058e57600080fd5b810190808035906020019092919080359060200190929190505050611b8d565b6040518082815260200191505060405180910390f35b610610600480360360408110156105da57600080fd5b8101908080359060200190929190803573ffffffffffffffffffffffffffffffffffffffff169060200190929190505050611bbd565b604051808381526020018281526020019250505060405180910390f35b610635611bee565b005b61063f611de2565b6040518082815260200191505060405180910390f35b6106976004803603602081101561066b57600080fd5b81019080803573ffffffffffffffffffffffffffffffffffffffff169060200190929190505050611de8565b60405180821515815260200191505060405180910390f35b6106fb600480360360408110156106c557600080fd5b8101908080359060200190929190803573ffffffffffffffffffffffffffffffffffffffff169060200190929190505050611e08565b6040518082815260200191505060405180910390f35b61071961204e565b604051808273ffffffffffffffffffffffffffffffffffffffff16815260200191505060405180910390f35b61074d612074565b6040518082815260200191505060405180910390f35b6107b36004803603608081101561077957600080fd5b810190808035906020019092919080359060200190929190803561ffff16906020019092919080351515906020019092919050505061207a565b005b6107eb600480360360408110156107cb57600080fd5b81019080803590602001909291908035906020019092919050505061225c565b005b61082f6004803603602081101561080357600080fd5b81019080803573ffffffffffffffffffffffffffffffffffffffff1690602001909291905050506124d8565b005b6108396126e3565b6040518082815260200191505060405180910390f35b6000600780549050905090565b600260009054906101000a900473ffffffffffffffffffffffffffffffffffffffff1681565b61088a6126e9565b73ffffffffffffffffffffffffffffffffffffffff1660008054906101000a900473ffffffffffffffffffffffffffffffffffffffff1673ffffffffffffffffffffffffffffffffffffffff161461094a576040517f08c379a00000000000000000000000000000000000000000000000000000000081526004018080602001828103825260208152602001807f4f776e61626c653a2063616c6c6572206973206e6f7420746865206f776e657281525060200191505060405180910390fd5b61095261135f565b806004819055503373ffffffffffffffffffffffffffffffffffffffff167f7fb869f6cb0da16d0c24a4bde4b1dd228224006e5b3d3431badfe4d470482a2c826040518082815260200191505060405180910390a250565b600781815481106109b757fe5b90600052602060002090600502016000915090508060000160009054906101000a900473ffffffffffffffffffffffffffffffffffffffff16908060010154908060020154908060030154908060040160009054906101000a900461ffff16905085565b60095481565b600560009054906101000a900473ffffffffffffffffffffffffffffffffffffffff1681565b60026001541415610ac0576040517f08c379a000000000000000000000000000000000000000000000000000000000815260040180806020018281038252601f8152602001807f5265656e7472616e637947756172643a207265656e7472616e742063616c6c0081525060200191505060405180910390fd5b6002600181905550600060078381548110610ad757fe5b9060005260206000209060050201905060006008600085815260200190815260200160002060003373ffffffffffffffffffffffffffffffffffffffff1673ffffffffffffffffffffffffffffffffffffffff16815260200190815260200160002090508281600001541015610bb5576040517f08c379a00000000000000000000000000000000000000000000000000000000081526004018080602001828103825260128152602001807f77697468647261773a206e6f7420676f6f64000000000000000000000000000081525060200191505060405180910390fd5b610bbe84610e3c565b6000610c088260010154610bfa64e8d4a51000610bec876003015487600001546126f190919063ffffffff16565b61277790919063ffffffff16565b6127c190919063ffffffff16565b90506000811115610c1e57610c1d338261280b565b5b6000841115610d9f57610c7633858560000160009054906101000a900473ffffffffffffffffffffffffffffffffffffffff1673ffffffffffffffffffffffffffffffffffffffff16612adf9092919063ffffffff16565b60008360040160009054906101000a900461ffff1661ffff161115610d7e576000610cd4612710610cc68660040160009054906101000a900461ffff1661ffff16886126f190919063ffffffff16565b61277790919063ffffffff16565b9050610d47600560009054906101000a900473ffffffffffffffffffffffffffffffffffffffff16828660000160009054906101000a900473ffffffffffffffffffffffffffffffffffffffff1673ffffffffffffffffffffffffffffffffffffffff16612adf9092919063ffffffff16565b610d7081610d628786600001546127c190919063ffffffff16565b6127c190919063ffffffff16565b836000018190555050610d9e565b610d958483600001546127c190919063ffffffff16565b82600001819055505b5b610dd164e8d4a51000610dc3856003015485600001546126f190919063ffffffff16565b61277790919063ffffffff16565b8260010181905550843373ffffffffffffffffffffffffffffffffffffffff167ff279e6a1f5e320cca91135676d9cb6e44ca8a08c0b88342bcdb1144f6511b568866040518082815260200191505060405180910390a3505050600180819055505050565b600a5481565b600060078281548110610e4b57fe5b9060005260206000209060050201905080600201544311610e6c5750611194565b60008160000160009054906101000a900473ffffffffffffffffffffffffffffffffffffffff1673ffffffffffffffffffffffffffffffffffffffff166370a08231306040518263ffffffff1660e01b8152600401808273ffffffffffffffffffffffffffffffffffffffff16815260200191505060206040518083038186803b158015610ef957600080fd5b505afa158015610f0d573d6000803e3d6000fd5b505050506040513d6020811015610f2357600080fd5b810190808051906020019092919050505090506000811480610f49575060008260010154145b15610f5e574382600201819055505050611194565b6000610f6e836002015443611b8d565b90506000610fb1600954610fa38660010154610f95600454876126f190919063ffffffff16565b6126f190919063ffffffff16565b61277790919063ffffffff16565b9050600260009054906101000a900473ffffffffffffffffffffffffffffffffffffffff1673ffffffffffffffffffffffffffffffffffffffff166340c10f19600360009054906101000a900473ffffffffffffffffffffffffffffffffffffffff16611028600a8561277790919063ffffffff16565b6040518363ffffffff1660e01b8152600401808373ffffffffffffffffffffffffffffffffffffffff16815260200182815260200192505050600060405180830381600087803b15801561107b57600080fd5b505af115801561108f573d6000803e3d6000fd5b50505050600260009054906101000a900473ffffffffffffffffffffffffffffffffffffffff1673ffffffffffffffffffffffffffffffffffffffff166340c10f1930836040518363ffffffff1660e01b8152600401808373ffffffffffffffffffffffffffffffffffffffff16815260200182815260200192505050600060405180830381600087803b15801561112657600080fd5b505af115801561113a573d6000803e3d6000fd5b5050505061117e61116b8461115d64e8d4a51000856126f190919063ffffffff16565b61277790919063ffffffff16565b8560030154612b8190919063ffffffff16565b8460030181905550438460020181905550505050505b50565b60026001541415611210576040517f08c379a000000000000000000000000000000000000000000000000000000000815260040180806020018281038252601f8152602001807f5265656e7472616e637947756172643a207265656e7472616e742063616c6c0081525060200191505060405180910390fd5b600260018190555060006007828154811061122757fe5b9060005260206000209060050201905060006008600084815260200190815260200160002060003373ffffffffffffffffffffffffffffffffffffffff1673ffffffffffffffffffffffffffffffffffffffff168152602001908152602001600020905060008160000154905060008260000181905550600082600101819055506112f733828560000160009054906101000a900473ffffffffffffffffffffffffffffffffffffffff1673ffffffffffffffffffffffffffffffffffffffff16612adf9092919063ffffffff16565b833373ffffffffffffffffffffffffffffffffffffffff167fbb757047c2b5f3974fe26b7c10f732e7bce710b0952a71082702781e62ae0595836040518082815260200191505060405180910390a35050506001808190555050565b67016345785d8a000081565b6000600780549050905060005b818110156113885761137d81610e3c565b80600101905061136c565b5050565b60065481565b61139a6126e9565b73ffffffffffffffffffffffffffffffffffffffff1660008054906101000a900473ffffffffffffffffffffffffffffffffffffffff1673ffffffffffffffffffffffffffffffffffffffff161461145a576040517f08c379a00000000000000000000000000000000000000000000000000000000081526004018080602001828103825260208152602001807f4f776e61626c653a2063616c6c6572206973206e6f7420746865206f776e657281525060200191505060405180910390fd5b600073ffffffffffffffffffffffffffffffffffffffff1660008054906101000a900473ffffffffffffffffffffffffffffffffffffffff1673ffffffffffffffffffffffffffffffffffffffff167f8be0079c531659141344cd1fd0a4f28419497f9722a3daafe3b4186f6b6457e060405160405180910390a360008060006101000a81548173ffffffffffffffffffffffffffffffffffffffff021916908373ffffffffffffffffffffffffffffffffffffffff160217905550565b6115206126e9565b73ffffffffffffffffffffffffffffffffffffffff1660008054906101000a900473ffffffffffffffffffffffffffffffffffffffff1673ffffffffffffffffffffffffffffffffffffffff16146115e0576040517f08c379a00000000000000000000000000000000000000000000000000000000081526004018080602001828103825260208152602001807f4f776e61626c653a2063616c6c6572206973206e6f7420746865206f776e657281525060200191505060405180910390fd5b8260001515600b60008373ffffffffffffffffffffffffffffffffffffffff1673ffffffffffffffffffffffffffffffffffffffff16815260200190815260200160002060009054906101000a900460ff161515146116a7576040517f08c379a00000000000000000000000000000000000000000000000000000000081526004018080602001828103825260198152602001807f6e6f6e4475706c6963617465643a206475706c6963617465640000000000000081525060200191505060405180910390fd5b60c88361ffff161115611705576040517f08c379a00000000000000000000000000000000000000000000000000000000081526004018080602001828103825260268152602001806132566026913960400191505060405180910390fd5b81156117145761171361135f565b5b6000600a54431161172757600a54611729565b435b905061174086600954612b8190919063ffffffff16565b6009819055506001600b60008773ffffffffffffffffffffffffffffffffffffffff1673ffffffffffffffffffffffffffffffffffffffff16815260200190815260200160002060006101000a81548160ff02191690831515021790555060076040518060a001604052808773ffffffffffffffffffffffffffffffffffffffff168152602001888152602001838152602001600081526020018661ffff16815250908060018154018082558091505060019003906000526020600020906005020160009091909190915060008201518160000160006101000a81548173ffffffffffffffffffffffffffffffffffffffff021916908373ffffffffffffffffffffffffffffffffffffffff16021790555060208201518160010155604082015181600201556060820151816003015560808201518160040160006101000a81548161ffff021916908361ffff1602179055505050505050505050565b600560009054906101000a900473ffffffffffffffffffffffffffffffffffffffff1673ffffffffffffffffffffffffffffffffffffffff163373ffffffffffffffffffffffffffffffffffffffff1614611960576040517f08c379a00000000000000000000000000000000000000000000000000000000081526004018080602001828103825260188152602001807f736574466565416464726573733a20464f5242494444454e000000000000000081525060200191505060405180910390fd5b80600560006101000a81548173ffffffffffffffffffffffffffffffffffffffff021916908373ffffffffffffffffffffffffffffffffffffffff1602179055508073ffffffffffffffffffffffffffffffffffffffff163373ffffffffffffffffffffffffffffffffffffffff167fd44190acf9d04bdb5d3a1aafff7e6dee8b40b93dfb8c5d3f0eea4b9f4539c3f760405160405180910390a350565b600181565b600360009054906101000a900473ffffffffffffffffffffffffffffffffffffffff1673ffffffffffffffffffffffffffffffffffffffff163373ffffffffffffffffffffffffffffffffffffffff1614611ac6576040517f08c379a00000000000000000000000000000000000000000000000000000000081526004018080602001828103825260098152602001807f6465763a207775743f000000000000000000000000000000000000000000000081525060200191505060405180910390fd5b80600360006101000a81548173ffffffffffffffffffffffffffffffffffffffff021916908373ffffffffffffffffffffffffffffffffffffffff1602179055508073ffffffffffffffffffffffffffffffffffffffff163373ffffffffffffffffffffffffffffffffffffffff167f618c54559e94f1499a808aad71ee8729f8e74e8c48e979616328ce493a1a52e760405160405180910390a350565b60008060009054906101000a900473ffffffffffffffffffffffffffffffffffffffff16905090565b6000611bb56001611ba785856127c190919063ffffffff16565b6126f190919063ffffffff16565b905092915050565b6008602052816000526040600020602052806000526040600020600091509150508060000154908060010154905082565b600a544311611c48576040517f08c379a000000000000000000000000000000000000000000000000000000000815260040180806020018281038252603a8152602001806132c1603a913960400191505060405180910390fd5b67016345785d8a000060045411611caa576040517f08c379a00000000000000000000000000000000000000000000000000000000081526004018080602001828103825260438152602001806132fb6043913960600191505060405180910390fd5b6000611cd5613a98611cc7600a54436127c190919063ffffffff16565b61277790919063ffffffff16565b90506006548111611ce65750611de0565b60006004549050600060065490505b82811015611d3757611d2a612710611d1c6101f461271003856126f190919063ffffffff16565b61277790919063ffffffff16565b9150806001019050611cf5565b5067016345785d8a00008110611d4d5780611d57565b67016345785d8a00005b90506004548110611d69575050611de0565b611d7161135f565b8160068190555060006004549050816004819055503373ffffffffffffffffffffffffffffffffffffffff167f1d75b4af369dd9c67d43994eea5f98a89dcaa2d64156061ae12a4eaaeb43ff088284604051808381526020018281526020019250505060405180910390a25050505b565b6101f481565b600b6020528060005260406000206000915054906101000a900460ff1681565b60008060078481548110611e1857fe5b9060005260206000209060050201905060006008600086815260200190815260200160002060008573ffffffffffffffffffffffffffffffffffffffff1673ffffffffffffffffffffffffffffffffffffffff168152602001908152602001600020905060008260030154905060008360000160009054906101000a900473ffffffffffffffffffffffffffffffffffffffff1673ffffffffffffffffffffffffffffffffffffffff166370a08231306040518263ffffffff1660e01b8152600401808273ffffffffffffffffffffffffffffffffffffffff16815260200191505060206040518083038186803b158015611f1257600080fd5b505afa158015611f26573d6000803e3d6000fd5b505050506040513d6020811015611f3c57600080fd5b81019080805190602001909291905050509050836002015443118015611f63575060008114155b15611ffe576000611f78856002015443611b8d565b90506000611fbb600954611fad8860010154611f9f600454876126f190919063ffffffff16565b6126f190919063ffffffff16565b61277790919063ffffffff16565b9050611ff9611fea84611fdc64e8d4a51000856126f190919063ffffffff16565b61277790919063ffffffff16565b85612b8190919063ffffffff16565b935050505b612042836001015461203464e8d4a510006120268688600001546126f190919063ffffffff16565b61277790919063ffffffff16565b6127c190919063ffffffff16565b94505050505092915050565b600360009054906101000a900473ffffffffffffffffffffffffffffffffffffffff1681565b613a9881565b6120826126e9565b73ffffffffffffffffffffffffffffffffffffffff1660008054906101000a900473ffffffffffffffffffffffffffffffffffffffff1673ffffffffffffffffffffffffffffffffffffffff1614612142576040517f08c379a00000000000000000000000000000000000000000000000000000000081526004018080602001828103825260208152602001807f4f776e61626c653a2063616c6c6572206973206e6f7420746865206f776e657281525060200191505060405180910390fd5b60c88261ffff1611156121a0576040517f08c379a000000000000000000000000000000000000000000000000000000000815260040180806020018281038252602681526020018061333e6026913960400191505060405180910390fd5b80156121af576121ae61135f565b5b6121f4836121e6600787815481106121c357fe5b9060005260206000209060050201600101546009546127c190919063ffffffff16565b612b8190919063ffffffff16565b600981905550826007858154811061220857fe5b906000526020600020906005020160010181905550816007858154811061222b57fe5b906000526020600020906005020160040160006101000a81548161ffff021916908361ffff16021790555050505050565b600260015414156122d5576040517f08c379a000000000000000000000000000000000000000000000000000000000815260040180806020018281038252601f8152602001807f5265656e7472616e637947756172643a207265656e7472616e742063616c6c0081525060200191505060405180910390fd5b60026001819055506000600783815481106122ec57fe5b9060005260206000209060050201905060006008600085815260200190815260200160002060003373ffffffffffffffffffffffffffffffffffffffff1673ffffffffffffffffffffffffffffffffffffffff168152602001908152602001600020905061235984610e3c565b6000816000015411156123c85760006123b082600101546123a264e8d4a51000612394876003015487600001546126f190919063ffffffff16565b61277790919063ffffffff16565b6127c190919063ffffffff16565b905060008111156123c6576123c5338261280b565b5b505b6000831115612442576124223330858560000160009054906101000a900473ffffffffffffffffffffffffffffffffffffffff1673ffffffffffffffffffffffffffffffffffffffff16612c09909392919063ffffffff16565b612439838260000154612b8190919063ffffffff16565b81600001819055505b61247464e8d4a51000612466846003015484600001546126f190919063ffffffff16565b61277790919063ffffffff16565b8160010181905550833373ffffffffffffffffffffffffffffffffffffffff167f90890809c654f11d6e72a28fa60149770a0d11ec6c92319d6ceb2bb0a4ea1a15856040518082815260200191505060405180910390a35050600180819055505050565b6124e06126e9565b73ffffffffffffffffffffffffffffffffffffffff1660008054906101000a900473ffffffffffffffffffffffffffffffffffffffff1673ffffffffffffffffffffffffffffffffffffffff16146125a0576040517f08c379a00000000000000000000000000000000000000000000000000000000081526004018080602001828103825260208152602001807f4f776e61626c653a2063616c6c6572206973206e6f7420746865206f776e657281525060200191505060405180910390fd5b600073ffffffffffffffffffffffffffffffffffffffff168173ffffffffffffffffffffffffffffffffffffffff161415612626576040517f08c379a000000000000000000000000000000000000000000000000000000000815260040180806020018281038252602681526020018061320a6026913960400191505060405180910390fd5b8073ffffffffffffffffffffffffffffffffffffffff1660008054906101000a900473ffffffffffffffffffffffffffffffffffffffff1673ffffffffffffffffffffffffffffffffffffffff167f8be0079c531659141344cd1fd0a4f28419497f9722a3daafe3b4186f6b6457e060405160405180910390a3806000806101000a81548173ffffffffffffffffffffffffffffffffffffffff021916908373ffffffffffffffffffffffffffffffffffffffff16021790555050565b60045481565b600033905090565b6000808314156127045760009050612771565b600082840290508284828161271557fe5b041461276c576040517f08c379a000000000000000000000000000000000000000000000000000000000815260040180806020018281038252602181526020018061327c6021913960400191505060405180910390fd5b809150505b92915050565b60006127b983836040518060400160405280601a81526020017f536166654d6174683a206469766973696f6e206279207a65726f000000000000815250612cca565b905092915050565b600061280383836040518060400160405280601e81526020017f536166654d6174683a207375627472616374696f6e206f766572666c6f770000815250612d90565b905092915050565b6000600260009054906101000a900473ffffffffffffffffffffffffffffffffffffffff1673ffffffffffffffffffffffffffffffffffffffff166370a08231306040518263ffffffff1660e01b8152600401808273ffffffffffffffffffffffffffffffffffffffff16815260200191505060206040518083038186803b15801561289657600080fd5b505afa1580156128aa573d6000803e3d6000fd5b505050506040513d60208110156128c057600080fd5b810190808051906020019092919050505090506000818311156129b257600260009054906101000a900473ffffffffffffffffffffffffffffffffffffffff1673ffffffffffffffffffffffffffffffffffffffff1663a9059cbb85846040518363ffffffff1660e01b8152600401808373ffffffffffffffffffffffffffffffffffffffff16815260200182815260200192505050602060405180830381600087803b15801561297057600080fd5b505af1158015612984573d6000803e3d6000fd5b505050506040513d602081101561299a57600080fd5b81019080805190602001909291905050509050612a83565b600260009054906101000a900473ffffffffffffffffffffffffffffffffffffffff1673ffffffffffffffffffffffffffffffffffffffff1663a9059cbb85856040518363ffffffff1660e01b8152600401808373ffffffffffffffffffffffffffffffffffffffff16815260200182815260200192505050602060405180830381600087803b158015612a4557600080fd5b505af1158015612a59573d6000803e3d6000fd5b505050506040513d6020811015612a6f57600080fd5b810190808051906020019092919050505090505b80612ad9576040517f08c379a000000000000000000000000000000000000000000000000000000000815260040180806020018281038252602481526020018061329d6024913960400191505060405180910390fd5b50505050565b612b7c8363a9059cbb60e01b8484604051602401808373ffffffffffffffffffffffffffffffffffffffff16815260200182815260200192505050604051602081830303815290604052907bffffffffffffffffffffffffffffffffffffffffffffffffffffffff19166020820180517bffffffffffffffffffffffffffffffffffffffffffffffffffffffff8381831617835250505050612e50565b505050565b600080828401905083811015612bff576040517f08c379a000000000000000000000000000000000000000000000000000000000815260040180806020018281038252601b8152602001807f536166654d6174683a206164646974696f6e206f766572666c6f77000000000081525060200191505060405180910390fd5b8091505092915050565b612cc4846323b872dd60e01b858585604051602401808473ffffffffffffffffffffffffffffffffffffffff1681526020018373ffffffffffffffffffffffffffffffffffffffff1681526020018281526020019350505050604051602081830303815290604052907bffffffffffffffffffffffffffffffffffffffffffffffffffffffff19166020820180517bffffffffffffffffffffffffffffffffffffffffffffffffffffffff8381831617835250505050612e50565b50505050565b60008083118290612d76576040517f08c379a00000000000000000000000000000000000000000000000000000000081526004018080602001828103825283818151815260200191508051906020019080838360005b83811015612d3b578082015181840152602081019050612d20565b50505050905090810190601f168015612d685780820380516001836020036101000a031916815260200191505b509250505060405180910390fd5b506000838581612d8257fe5b049050809150509392505050565b6000838311158290612e3d576040517f08c379a00000000000000000000000000000000000000000000000000000000081526004018080602001828103825283818151815260200191508051906020019080838360005b83811015612e02578082015181840152602081019050612de7565b50505050905090810190601f168015612e2f5780820380516001836020036101000a031916815260200191505b509250505060405180910390fd5b5060008385039050809150509392505050565b6060612eb2826040518060400160405280602081526020017f5361666542455032303a206c6f772d6c6576656c2063616c6c206661696c65648152508573ffffffffffffffffffffffffffffffffffffffff16612f3f9092919063ffffffff16565b9050600081511115612f3a57808060200190516020811015612ed357600080fd5b8101908080519060200190929190505050612f39576040517f08c379a000000000000000000000000000000000000000000000000000000000815260040180806020018281038252602a8152602001806131e0602a913960400191505060405180910390fd5b5b505050565b6060612f4e8484600085612f57565b90509392505050565b606082471015612fb2576040517f08c379a00000000000000000000000000000000000000000000000000000000081526004018080602001828103825260268152602001806132306026913960400191505060405180910390fd5b612fbb85613100565b61302d576040517f08c379a000000000000000000000000000000000000000000000000000000000815260040180806020018281038252601d8152602001807f416464726573733a2063616c6c20746f206e6f6e2d636f6e747261637400000081525060200191505060405180910390fd5b600060608673ffffffffffffffffffffffffffffffffffffffff1685876040518082805190602001908083835b6020831061307d578051825260208201915060208101905060208303925061305a565b6001836020036101000a03801982511681845116808217855250505050505090500191505060006040518083038185875af1925050503d80600081146130df576040519150601f19603f3d011682016040523d82523d6000602084013e6130e4565b606091505b50915091506130f4828286613113565b92505050949350505050565b600080823b905060008111915050919050565b60608315613123578290506131d8565b6000835111156131365782518084602001fd5b816040517f08c379a00000000000000000000000000000000000000000000000000000000081526004018080602001828103825283818151815260200191508051906020019080838360005b8381101561319d578082015181840152602081019050613182565b50505050905090810190601f1680156131ca5780820380516001836020036101000a031916815260200191505b509250505060405180910390fd5b939250505056fe5361666542455032303a204245503230206f7065726174696f6e20646964206e6f7420737563636565644f776e61626c653a206e6577206f776e657220697320746865207a65726f2061646472657373416464726573733a20696e73756666696369656e742062616c616e636520666f722063616c6c6164643a20696e76616c69642077697468647261772066656520626173697320706f696e7473536166654d6174683a206d756c7469706c69636174696f6e206f766572666c6f777361666553687574746c655472616e736665723a207472616e73666572206661696c6564757064617465456d697373696f6e526174653a2043616e206f6e6c792062652063616c6c6564206166746572206d696e696e6720737461727473757064617465456d697373696f6e526174653a20456d697373696f6e207261746520686173207265616368656420746865206d696e696d756d207468726573686f6c647365743a20696e76616c69642077697468647261772066656520626173697320706f696e7473a264697066735822122040135743ec405d27e849cca64f92ecba0003791b42b439fdabc6c0fc069c840c64736f6c634300060c0033",
  "source": "// SPDX-License-Identifier: MIT\n\npragma solidity 0.6.12;\n\nimport \"@openzeppelin/contracts/math/SafeMath.sol\";\nimport \"./libs/IBEP20.sol\";\nimport \"./libs/SafeBEP20.sol\";\nimport \"@openzeppelin/contracts/access/Ownable.sol\";\nimport \"@openzeppelin/contracts/utils/ReentrancyGuard.sol\";\n\nimport \"./ShuttleToken.sol\";\n\n// MasterEngineer is the engineer of Shuttle. He can build Shuttle and he is a fair guy.\n//\n// Note that it's ownable and the owner wields tremendous power. The ownership\n// will be transferred to a governance smart contract once SHUTTLE is sufficiently\n// distributed and the community can show to govern itself.\n//\n// Have fun reading it. Hopefully it's bug-free. God bless.\ncontract MasterEngineer is Ownable, ReentrancyGuard {\n    using SafeMath for uint256;\n    using SafeBEP20 for IBEP20;\n\n    // Info of each user.\n    struct UserInfo {\n        uint256 amount;         // How many LP tokens the user has provided.\n        uint256 rewardDebt;     // Reward debt. See explanation below.\n        //\n        // We do some fancy math here. Basically, any point in time, the amount of SHUTTLEs\n        // entitled to a user but is pending to be distributed is:\n        //\n        //   pending reward = (user.amount * pool.accShuttlePerShare) - user.rewardDebt\n        //\n        // Whenever a user deposits or withdraws LP tokens to a pool. Here's what happens:\n        //   1. The pool's `accShuttlePerShare` (and `lastRewardBlock`) gets updated.\n        //   2. User receives the pending reward sent to his/her address.\n        //   3. User's `amount` gets updated.\n        //   4. User's `rewardDebt` gets updated.\n    }\n\n    // Info of each pool.\n    struct PoolInfo {\n        IBEP20 lpToken;           // Address of LP token contract.\n        uint256 allocPoint;       // How many allocation points assigned to this pool. SHUTTLEs to distribute per block.\n        uint256 lastRewardBlock;  // Last block number that SHUTTLEs distribution occurs.\n        uint256 accShuttlePerShare;   // Accumulated SHUTTLEs per share, times 1e12. See below.\n        uint16 withdrawFeeBP;      // Deposit fee in basis points\n    }\n\n    // The SHUTTLE TOKEN!\n    ShuttleToken public shuttle;\n    // Dev address.\n    address public devaddr;\n    // SHUTTLE tokens created per block.\n    uint256 public shuttlePerBlock;\n    // Bonus muliplier for early shuttle makers.\n    uint256 public constant BONUS_MULTIPLIER = 1;\n    // Deposit Fee address\n    address public feeAddress;\n\n    // placeholder values\n\n    // Minimum emission rate: 0.1 SHUTTLE per block.\n    uint256 public constant MINIMUM_EMISSION_RATE = 100 finney;\n    // Suppose BSC block time is 3 sec, then 3 sec x 15000 block ~ 13 hours\n    uint256 public constant EMISSION_REDUCTION_PERIOD_BLOCKS = 15000;\n    // Emission reduction rate should rise proportionally with emission reduction rate\n    uint256 public constant EMISSION_REDUCTION_RATE_PER_PERIOD = 500; // 5%\n    // Last reduction period index\n    uint256 public lastReductionPeriodIndex = 0;\n\n    // end of placeholder values\n    \n    // Info of each pool.\n    PoolInfo[] public poolInfo;\n    // Info of each user that stakes LP tokens.\n    mapping(uint256 => mapping(address => UserInfo)) public userInfo;\n    // Total allocation points. Must be the sum of all allocation points in all pools.\n    uint256 public totalAllocPoint = 0;\n    // The block number when SHUTTLE mining starts.\n    uint256 public startBlock;\n\n    event Deposit(address indexed user, uint256 indexed pid, uint256 amount);\n    event Withdraw(address indexed user, uint256 indexed pid, uint256 amount);\n    event EmergencyWithdraw(address indexed user, uint256 indexed pid, uint256 amount);\n    event SetFeeAddress(address indexed user, address indexed newAddress);\n    event SetDevAddress(address indexed user, address indexed newAddress);\n    event UpdateCustomEmissionRate(address indexed user, uint256 shuttlePerBlock);\n    event UpdateEmissionRate(address indexed caller, uint256 previousAmount, uint256 newAmount);\n\n    constructor(\n        ShuttleToken _shuttle,\n        address _devaddr,\n        address _feeAddress,\n        uint256 _shuttlePerBlock,\n        uint256 _startBlock\n    ) public {\n        shuttle = _shuttle;\n        devaddr = _devaddr;\n        feeAddress = _feeAddress;\n        shuttlePerBlock = _shuttlePerBlock;\n        startBlock = _startBlock;\n    }\n\n    function poolLength() external view returns (uint256) {\n        return poolInfo.length;\n    }\n\n    mapping(IBEP20 => bool) public poolExistence;\n    modifier nonDuplicated(IBEP20 _lpToken) {\n        require(poolExistence[_lpToken] == false, \"nonDuplicated: duplicated\");\n        _;\n    }\n\n    // Add a new lp to the pool. Can only be called by the owner.\n    function add(uint256 _allocPoint, IBEP20 _lpToken, uint16 _withdrawFeeBP, bool _withUpdate) public onlyOwner nonDuplicated(_lpToken) {\n        require(_withdrawFeeBP <= 200, \"add: invalid withdraw fee basis points\");\n        if (_withUpdate) {\n            massUpdatePools();\n        }\n        uint256 lastRewardBlock = block.number > startBlock ? block.number : startBlock;\n        totalAllocPoint = totalAllocPoint.add(_allocPoint);\n        poolExistence[_lpToken] = true;\n        poolInfo.push(PoolInfo({\n        lpToken : _lpToken,\n        allocPoint : _allocPoint,\n        lastRewardBlock : lastRewardBlock,\n        accShuttlePerShare : 0,\n        withdrawFeeBP : _withdrawFeeBP\n        }));\n    }\n\n    // Update the given pool's SHUTTLE allocation point and withdraw fee. Can only be called by the owner.\n    function set(uint256 _pid, uint256 _allocPoint, uint16 _withdrawFeeBP, bool _withUpdate) public onlyOwner {\n        require(_withdrawFeeBP <= 200, \"set: invalid withdraw fee basis points\");\n        if (_withUpdate) {\n            massUpdatePools();\n        }\n        totalAllocPoint = totalAllocPoint.sub(poolInfo[_pid].allocPoint).add(_allocPoint);\n        poolInfo[_pid].allocPoint = _allocPoint;\n        poolInfo[_pid].withdrawFeeBP = _withdrawFeeBP;\n    }\n\n    // Return reward multiplier over the given _from to _to block.\n    function getMultiplier(uint256 _from, uint256 _to) public pure returns (uint256) {\n        return _to.sub(_from).mul(BONUS_MULTIPLIER);\n    }\n\n    // View function to see pending SHUTTLEs on frontend.\n    function pendingShuttle(uint256 _pid, address _user) external view returns (uint256) {\n        PoolInfo storage pool = poolInfo[_pid];\n        UserInfo storage user = userInfo[_pid][_user];\n        uint256 accShuttlePerShare = pool.accShuttlePerShare;\n        uint256 lpSupply = pool.lpToken.balanceOf(address(this));\n        if (block.number > pool.lastRewardBlock && lpSupply != 0) {\n            uint256 multiplier = getMultiplier(pool.lastRewardBlock, block.number);\n            uint256 shuttleReward = multiplier.mul(shuttlePerBlock).mul(pool.allocPoint).div(totalAllocPoint);\n            accShuttlePerShare = accShuttlePerShare.add(shuttleReward.mul(1e12).div(lpSupply));\n        }\n        return user.amount.mul(accShuttlePerShare).div(1e12).sub(user.rewardDebt);\n    }\n\n    // Update reward variables for all pools. Be careful of gas spending!\n    function massUpdatePools() public {\n        uint256 length = poolInfo.length;\n        for (uint256 pid = 0; pid < length; ++pid) {\n            updatePool(pid);\n        }\n    }\n\n    // Update reward variables of the given pool to be up-to-date.\n    function updatePool(uint256 _pid) public {\n        PoolInfo storage pool = poolInfo[_pid];\n        if (block.number <= pool.lastRewardBlock) {\n            return;\n        }\n        uint256 lpSupply = pool.lpToken.balanceOf(address(this));\n        if (lpSupply == 0 || pool.allocPoint == 0) {\n            pool.lastRewardBlock = block.number;\n            return;\n        }\n        uint256 multiplier = getMultiplier(pool.lastRewardBlock, block.number);\n        uint256 shuttleReward = multiplier.mul(shuttlePerBlock).mul(pool.allocPoint).div(totalAllocPoint);\n        shuttle.mint(devaddr, shuttleReward.div(10));\n        shuttle.mint(address(this), shuttleReward);\n        pool.accShuttlePerShare = pool.accShuttlePerShare.add(shuttleReward.mul(1e12).div(lpSupply));\n        pool.lastRewardBlock = block.number;\n    }\n\n    // Deposit LP tokens to MasterChef for SHUTTLE allocation.\n    function deposit(uint256 _pid, uint256 _amount) public nonReentrant {\n        PoolInfo storage pool = poolInfo[_pid];\n        UserInfo storage user = userInfo[_pid][msg.sender];\n        updatePool(_pid);\n        if (user.amount > 0) {\n            uint256 pending = user.amount.mul(pool.accShuttlePerShare).div(1e12).sub(user.rewardDebt);\n            if (pending > 0) {\n                safeShuttleTransfer(msg.sender, pending);\n            }\n        }\n        if (_amount > 0) {\n            pool.lpToken.safeTransferFrom(address(msg.sender), address(this), _amount);\n            user.amount = user.amount.add(_amount);\n        }\n        user.rewardDebt = user.amount.mul(pool.accShuttlePerShare).div(1e12);\n        emit Deposit(msg.sender, _pid, _amount);\n    }\n\n    // Withdraw LP tokens from MasterChef.\n    function withdraw(uint256 _pid, uint256 _amount) public nonReentrant {\n        PoolInfo storage pool = poolInfo[_pid];\n        UserInfo storage user = userInfo[_pid][msg.sender];\n        require(user.amount >= _amount, \"withdraw: not good\");\n        updatePool(_pid);\n        uint256 pending = user.amount.mul(pool.accShuttlePerShare).div(1e12).sub(user.rewardDebt);\n        if (pending > 0) {\n            safeShuttleTransfer(msg.sender, pending);\n        }\n        if (_amount > 0) {\n            pool.lpToken.safeTransfer(address(msg.sender), _amount);\n            if (pool.withdrawFeeBP > 0) {\n                uint256 depositFee = _amount.mul(pool.withdrawFeeBP).div(10000);\n                pool.lpToken.safeTransfer(feeAddress, depositFee);\n                user.amount = user.amount.sub(_amount).sub(depositFee);\n            } else {\n                user.amount = user.amount.sub(_amount);\n            }\n        }\n        user.rewardDebt = user.amount.mul(pool.accShuttlePerShare).div(1e12);\n        emit Withdraw(msg.sender, _pid, _amount);\n    }\n\n    // Withdraw without caring about rewards. EMERGENCY ONLY.\n    function emergencyWithdraw(uint256 _pid) public nonReentrant {\n        PoolInfo storage pool = poolInfo[_pid];\n        UserInfo storage user = userInfo[_pid][msg.sender];\n        uint256 amount = user.amount;\n        user.amount = 0;\n        user.rewardDebt = 0;\n        pool.lpToken.safeTransfer(address(msg.sender), amount);\n        emit EmergencyWithdraw(msg.sender, _pid, amount);\n    }\n\n    // Safe shuttle transfer function, just in case if rounding error causes pool to not have enough SHUTTLEs.\n    function safeShuttleTransfer(address _to, uint256 _amount) internal {\n        uint256 shuttleBal = shuttle.balanceOf(address(this));\n        bool transferSuccess = false;\n        if (_amount > shuttleBal) {\n            transferSuccess = shuttle.transfer(_to, shuttleBal);\n        } else {\n            transferSuccess = shuttle.transfer(_to, _amount);\n        }\n        require(transferSuccess, \"safeShuttleTransfer: transfer failed\");\n    }\n\n    // Update dev address by the previous dev.\n    function dev(address _devaddr) public {\n        require(msg.sender == devaddr, \"dev: wut?\");\n        devaddr = _devaddr;\n        emit SetDevAddress(msg.sender, _devaddr);\n    }\n\n    function setFeeAddress(address _feeAddress) public {\n        require(msg.sender == feeAddress, \"setFeeAddress: FORBIDDEN\");\n        feeAddress = _feeAddress;\n        emit SetFeeAddress(msg.sender, _feeAddress);\n    }\n\n    function updateEmissionRate() public {\n        require(block.number > startBlock, \"updateEmissionRate: Can only be called after mining starts\");\n        require(shuttlePerBlock > MINIMUM_EMISSION_RATE, \"updateEmissionRate: Emission rate has reached the minimum threshold\");\n\n        uint256 currentIndex = block.number.sub(startBlock).div(EMISSION_REDUCTION_PERIOD_BLOCKS);\n        if (currentIndex <= lastReductionPeriodIndex) {\n            return;\n        }\n\n        uint256 newEmissionRate = shuttlePerBlock;\n        for (uint256 index = lastReductionPeriodIndex; index < currentIndex; ++index) {\n            newEmissionRate = newEmissionRate.mul(1e4 - EMISSION_REDUCTION_RATE_PER_PERIOD).div(1e4);\n        }\n\n        newEmissionRate = newEmissionRate < MINIMUM_EMISSION_RATE ? MINIMUM_EMISSION_RATE : newEmissionRate;\n        if (newEmissionRate >= shuttlePerBlock) {\n            return;\n        }\n\n        massUpdatePools();\n        lastReductionPeriodIndex = currentIndex;\n        uint256 previousEmissionRate = shuttlePerBlock;\n        shuttlePerBlock = newEmissionRate;\n        emit UpdateEmissionRate(msg.sender, previousEmissionRate, newEmissionRate);\n    }\n\n    //Pancake has to add hidden dummy pools inorder to alter the emission, here we make it simple and transparent to all.\n    function updateCustomEmissionRate(uint256 _shuttlePerBlock) public onlyOwner {\n        massUpdatePools();\n        shuttlePerBlock = _shuttlePerBlock;\n        emit UpdateCustomEmissionRate(msg.sender, _shuttlePerBlock);\n    }\n\n}\n",
  "sourcePath": "/home/kaneda/Documents/shuttle-farms-0.1/contracts/MasterEngineer.sol",
  "compiler": {
    "name": "solc",
    "version": "0.6.12+commit.27d51765.Emscripten.clang"
  },
  "schemaVersion": "3.0.23",
  "updatedAt": "2021-06-14T22:37:43.712Z",
  "networkType": "ethereum",
  "devdoc": {
    "kind": "dev",
    "methods": {
      "owner()": {
        "details": "Returns the address of the current owner."
      },
      "renounceOwnership()": {
        "details": "Leaves the contract without owner. It will not be possible to call `onlyOwner` functions anymore. Can only be called by the current owner. NOTE: Renouncing ownership will leave the contract without an owner, thereby removing any functionality that is only available to the owner."
      },
      "transferOwnership(address)": {
        "details": "Transfers ownership of the contract to a new account (`newOwner`). Can only be called by the current owner."
      }
    },
    "version": 1
  },
  "userdoc": {
    "kind": "user",
    "methods": {},
    "version": 1
  }
}