{
  "contractName": "ShuttleToken",
  "abi": [
    {
      "inputs": [],
      "stateMutability": "nonpayable",
      "type": "constructor"
    },
    {
      "anonymous": false,
      "inputs": [
        {
          "indexed": true,
          "internalType": "address",
          "name": "owner",
          "type": "address"
        },
        {
          "indexed": true,
          "internalType": "address",
          "name": "spender",
          "type": "address"
        },
        {
          "indexed": false,
          "internalType": "uint256",
          "name": "value",
          "type": "uint256"
        }
      ],
      "name": "Approval",
      "type": "event"
    },
    {
      "anonymous": false,
      "inputs": [
        {
          "indexed": true,
          "internalType": "address",
          "name": "operator",
          "type": "address"
        },
        {
          "indexed": false,
          "internalType": "uint256",
          "name": "previousRate",
          "type": "uint256"
        },
        {
          "indexed": false,
          "internalType": "uint256",
          "name": "newRate",
          "type": "uint256"
        }
      ],
      "name": "BurnRateUpdated",
      "type": "event"
    },
    {
      "anonymous": false,
      "inputs": [
        {
          "indexed": true,
          "internalType": "address",
          "name": "delegator",
          "type": "address"
        },
        {
          "indexed": true,
          "internalType": "address",
          "name": "fromDelegate",
          "type": "address"
        },
        {
          "indexed": true,
          "internalType": "address",
          "name": "toDelegate",
          "type": "address"
        }
      ],
      "name": "DelegateChanged",
      "type": "event"
    },
    {
      "anonymous": false,
      "inputs": [
        {
          "indexed": true,
          "internalType": "address",
          "name": "delegate",
          "type": "address"
        },
        {
          "indexed": false,
          "internalType": "uint256",
          "name": "previousBalance",
          "type": "uint256"
        },
        {
          "indexed": false,
          "internalType": "uint256",
          "name": "newBalance",
          "type": "uint256"
        }
      ],
      "name": "DelegateVotesChanged",
      "type": "event"
    },
    {
      "anonymous": false,
      "inputs": [
        {
          "indexed": true,
          "internalType": "address",
          "name": "operator",
          "type": "address"
        },
        {
          "indexed": false,
          "internalType": "uint256",
          "name": "previousRate",
          "type": "uint256"
        },
        {
          "indexed": false,
          "internalType": "uint256",
          "name": "newRate",
          "type": "uint256"
        }
      ],
      "name": "MaxTransferAmountRateUpdated",
      "type": "event"
    },
    {
      "anonymous": false,
      "inputs": [
        {
          "indexed": true,
          "internalType": "address",
          "name": "operator",
          "type": "address"
        },
        {
          "indexed": false,
          "internalType": "uint256",
          "name": "previousAmount",
          "type": "uint256"
        },
        {
          "indexed": false,
          "internalType": "uint256",
          "name": "newAmount",
          "type": "uint256"
        }
      ],
      "name": "MinAmountToLiquifyUpdated",
      "type": "event"
    },
    {
      "anonymous": false,
      "inputs": [
        {
          "indexed": true,
          "internalType": "address",
          "name": "previousOperator",
          "type": "address"
        },
        {
          "indexed": true,
          "internalType": "address",
          "name": "newOperator",
          "type": "address"
        }
      ],
      "name": "OperatorTransferred",
      "type": "event"
    },
    {
      "anonymous": false,
      "inputs": [
        {
          "indexed": true,
          "internalType": "address",
          "name": "previousOwner",
          "type": "address"
        },
        {
          "indexed": true,
          "internalType": "address",
          "name": "newOwner",
          "type": "address"
        }
      ],
      "name": "OwnershipTransferred",
      "type": "event"
    },
    {
      "anonymous": false,
      "inputs": [
        {
          "indexed": true,
          "internalType": "address",
          "name": "operator",
          "type": "address"
        },
        {
          "indexed": true,
          "internalType": "address",
          "name": "router",
          "type": "address"
        },
        {
          "indexed": true,
          "internalType": "address",
          "name": "pair",
          "type": "address"
        }
      ],
      "name": "ShuttleSwapRouterUpdated",
      "type": "event"
    },
    {
      "anonymous": false,
      "inputs": [
        {
          "indexed": false,
          "internalType": "uint256",
          "name": "tokensSwapped",
          "type": "uint256"
        },
        {
          "indexed": false,
          "internalType": "uint256",
          "name": "ethReceived",
          "type": "uint256"
        },
        {
          "indexed": false,
          "internalType": "uint256",
          "name": "tokensIntoLiqudity",
          "type": "uint256"
        }
      ],
      "name": "SwapAndLiquify",
      "type": "event"
    },
    {
      "anonymous": false,
      "inputs": [
        {
          "indexed": true,
          "internalType": "address",
          "name": "operator",
          "type": "address"
        },
        {
          "indexed": false,
          "internalType": "bool",
          "name": "enabled",
          "type": "bool"
        }
      ],
      "name": "SwapAndLiquifyEnabledUpdated",
      "type": "event"
    },
    {
      "anonymous": false,
      "inputs": [
        {
          "indexed": true,
          "internalType": "address",
          "name": "from",
          "type": "address"
        },
        {
          "indexed": true,
          "internalType": "address",
          "name": "to",
          "type": "address"
        },
        {
          "indexed": false,
          "internalType": "uint256",
          "name": "value",
          "type": "uint256"
        }
      ],
      "name": "Transfer",
      "type": "event"
    },
    {
      "anonymous": false,
      "inputs": [
        {
          "indexed": true,
          "internalType": "address",
          "name": "operator",
          "type": "address"
        },
        {
          "indexed": false,
          "internalType": "uint256",
          "name": "previousRate",
          "type": "uint256"
        },
        {
          "indexed": false,
          "internalType": "uint256",
          "name": "newRate",
          "type": "uint256"
        }
      ],
      "name": "TransferTaxRateUpdated",
      "type": "event"
    },
    {
      "inputs": [],
      "name": "BURN_ADDRESS",
      "outputs": [
        {
          "internalType": "address",
          "name": "",
          "type": "address"
        }
      ],
      "stateMutability": "view",
      "type": "function",
      "constant": true
    },
    {
      "inputs": [],
      "name": "DELEGATION_TYPEHASH",
      "outputs": [
        {
          "internalType": "bytes32",
          "name": "",
          "type": "bytes32"
        }
      ],
      "stateMutability": "view",
      "type": "function",
      "constant": true
    },
    {
      "inputs": [],
      "name": "DOMAIN_TYPEHASH",
      "outputs": [
        {
          "internalType": "bytes32",
          "name": "",
          "type": "bytes32"
        }
      ],
      "stateMutability": "view",
      "type": "function",
      "constant": true
    },
    {
      "inputs": [],
      "name": "MAXIMUM_TRANSFER_TAX_RATE",
      "outputs": [
        {
          "internalType": "uint16",
          "name": "",
          "type": "uint16"
        }
      ],
      "stateMutability": "view",
      "type": "function",
      "constant": true
    },
    {
      "inputs": [
        {
          "internalType": "address",
          "name": "owner",
          "type": "address"
        },
        {
          "internalType": "address",
          "name": "spender",
          "type": "address"
        }
      ],
      "name": "allowance",
      "outputs": [
        {
          "internalType": "uint256",
          "name": "",
          "type": "uint256"
        }
      ],
      "stateMutability": "view",
      "type": "function",
      "constant": true
    },
    {
      "inputs": [
        {
          "internalType": "address",
          "name": "spender",
          "type": "address"
        },
        {
          "internalType": "uint256",
          "name": "amount",
          "type": "uint256"
        }
      ],
      "name": "approve",
      "outputs": [
        {
          "internalType": "bool",
          "name": "",
          "type": "bool"
        }
      ],
      "stateMutability": "nonpayable",
      "type": "function"
    },
    {
      "inputs": [
        {
          "internalType": "address",
          "name": "account",
          "type": "address"
        }
      ],
      "name": "balanceOf",
      "outputs": [
        {
          "internalType": "uint256",
          "name": "",
          "type": "uint256"
        }
      ],
      "stateMutability": "view",
      "type": "function",
      "constant": true
    },
    {
      "inputs": [],
      "name": "burnRate",
      "outputs": [
        {
          "internalType": "uint16",
          "name": "",
          "type": "uint16"
        }
      ],
      "stateMutability": "view",
      "type": "function",
      "constant": true
    },
    {
      "inputs": [
        {
          "internalType": "address",
          "name": "",
          "type": "address"
        },
        {
          "internalType": "uint32",
          "name": "",
          "type": "uint32"
        }
      ],
      "name": "checkpoints",
      "outputs": [
        {
          "internalType": "uint32",
          "name": "fromBlock",
          "type": "uint32"
        },
        {
          "internalType": "uint256",
          "name": "votes",
          "type": "uint256"
        }
      ],
      "stateMutability": "view",
      "type": "function",
      "constant": true
    },
    {
      "inputs": [],
      "name": "decimals",
      "outputs": [
        {
          "internalType": "uint8",
          "name": "",
          "type": "uint8"
        }
      ],
      "stateMutability": "view",
      "type": "function",
      "constant": true
    },
    {
      "inputs": [
        {
          "internalType": "address",
          "name": "spender",
          "type": "address"
        },
        {
          "internalType": "uint256",
          "name": "subtractedValue",
          "type": "uint256"
        }
      ],
      "name": "decreaseAllowance",
      "outputs": [
        {
          "internalType": "bool",
          "name": "",
          "type": "bool"
        }
      ],
      "stateMutability": "nonpayable",
      "type": "function"
    },
    {
      "inputs": [],
      "name": "getOwner",
      "outputs": [
        {
          "internalType": "address",
          "name": "",
          "type": "address"
        }
      ],
      "stateMutability": "view",
      "type": "function",
      "constant": true
    },
    {
      "inputs": [
        {
          "internalType": "address",
          "name": "spender",
          "type": "address"
        },
        {
          "internalType": "uint256",
          "name": "addedValue",
          "type": "uint256"
        }
      ],
      "name": "increaseAllowance",
      "outputs": [
        {
          "internalType": "bool",
          "name": "",
          "type": "bool"
        }
      ],
      "stateMutability": "nonpayable",
      "type": "function"
    },
    {
      "inputs": [],
      "name": "maxTransferAmountRate",
      "outputs": [
        {
          "internalType": "uint16",
          "name": "",
          "type": "uint16"
        }
      ],
      "stateMutability": "view",
      "type": "function",
      "constant": true
    },
    {
      "inputs": [],
      "name": "minAmountToLiquify",
      "outputs": [
        {
          "internalType": "uint256",
          "name": "",
          "type": "uint256"
        }
      ],
      "stateMutability": "view",
      "type": "function",
      "constant": true
    },
    {
      "inputs": [],
      "name": "name",
      "outputs": [
        {
          "internalType": "string",
          "name": "",
          "type": "string"
        }
      ],
      "stateMutability": "view",
      "type": "function",
      "constant": true
    },
    {
      "inputs": [
        {
          "internalType": "address",
          "name": "",
          "type": "address"
        }
      ],
      "name": "nonces",
      "outputs": [
        {
          "internalType": "uint256",
          "name": "",
          "type": "uint256"
        }
      ],
      "stateMutability": "view",
      "type": "function",
      "constant": true
    },
    {
      "inputs": [
        {
          "internalType": "address",
          "name": "",
          "type": "address"
        }
      ],
      "name": "numCheckpoints",
      "outputs": [
        {
          "internalType": "uint32",
          "name": "",
          "type": "uint32"
        }
      ],
      "stateMutability": "view",
      "type": "function",
      "constant": true
    },
    {
      "inputs": [],
      "name": "owner",
      "outputs": [
        {
          "internalType": "address",
          "name": "",
          "type": "address"
        }
      ],
      "stateMutability": "view",
      "type": "function",
      "constant": true
    },
    {
      "inputs": [],
      "name": "renounceOwnership",
      "outputs": [],
      "stateMutability": "nonpayable",
      "type": "function"
    },
    {
      "inputs": [],
      "name": "shuttleSwapPair",
      "outputs": [
        {
          "internalType": "address",
          "name": "",
          "type": "address"
        }
      ],
      "stateMutability": "view",
      "type": "function",
      "constant": true
    },
    {
      "inputs": [],
      "name": "shuttleSwapRouter",
      "outputs": [
        {
          "internalType": "contract IUniswapV2Router02",
          "name": "",
          "type": "address"
        }
      ],
      "stateMutability": "view",
      "type": "function",
      "constant": true
    },
    {
      "inputs": [],
      "name": "swapAndLiquifyEnabled",
      "outputs": [
        {
          "internalType": "bool",
          "name": "",
          "type": "bool"
        }
      ],
      "stateMutability": "view",
      "type": "function",
      "constant": true
    },
    {
      "inputs": [],
      "name": "symbol",
      "outputs": [
        {
          "internalType": "string",
          "name": "",
          "type": "string"
        }
      ],
      "stateMutability": "view",
      "type": "function",
      "constant": true
    },
    {
      "inputs": [],
      "name": "totalSupply",
      "outputs": [
        {
          "internalType": "uint256",
          "name": "",
          "type": "uint256"
        }
      ],
      "stateMutability": "view",
      "type": "function",
      "constant": true
    },
    {
      "inputs": [
        {
          "internalType": "address",
          "name": "recipient",
          "type": "address"
        },
        {
          "internalType": "uint256",
          "name": "amount",
          "type": "uint256"
        }
      ],
      "name": "transfer",
      "outputs": [
        {
          "internalType": "bool",
          "name": "",
          "type": "bool"
        }
      ],
      "stateMutability": "nonpayable",
      "type": "function"
    },
    {
      "inputs": [
        {
          "internalType": "address",
          "name": "sender",
          "type": "address"
        },
        {
          "internalType": "address",
          "name": "recipient",
          "type": "address"
        },
        {
          "internalType": "uint256",
          "name": "amount",
          "type": "uint256"
        }
      ],
      "name": "transferFrom",
      "outputs": [
        {
          "internalType": "bool",
          "name": "",
          "type": "bool"
        }
      ],
      "stateMutability": "nonpayable",
      "type": "function"
    },
    {
      "inputs": [
        {
          "internalType": "address",
          "name": "newOwner",
          "type": "address"
        }
      ],
      "name": "transferOwnership",
      "outputs": [],
      "stateMutability": "nonpayable",
      "type": "function"
    },
    {
      "inputs": [],
      "name": "transferTaxRate",
      "outputs": [
        {
          "internalType": "uint16",
          "name": "",
          "type": "uint16"
        }
      ],
      "stateMutability": "view",
      "type": "function",
      "constant": true
    },
    {
      "stateMutability": "payable",
      "type": "receive",
      "payable": true
    },
    {
      "inputs": [
        {
          "internalType": "address",
          "name": "_to",
          "type": "address"
        },
        {
          "internalType": "uint256",
          "name": "_amount",
          "type": "uint256"
        }
      ],
      "name": "mint",
      "outputs": [],
      "stateMutability": "nonpayable",
      "type": "function"
    },
    {
      "inputs": [
        {
          "internalType": "uint256",
          "name": "amount",
          "type": "uint256"
        }
      ],
      "name": "mint",
      "outputs": [
        {
          "internalType": "bool",
          "name": "",
          "type": "bool"
        }
      ],
      "stateMutability": "nonpayable",
      "type": "function"
    },
    {
      "inputs": [],
      "name": "maxTransferAmount",
      "outputs": [
        {
          "internalType": "uint256",
          "name": "",
          "type": "uint256"
        }
      ],
      "stateMutability": "view",
      "type": "function",
      "constant": true
    },
    {
      "inputs": [
        {
          "internalType": "address",
          "name": "_account",
          "type": "address"
        }
      ],
      "name": "isExcludedFromAntiWhale",
      "outputs": [
        {
          "internalType": "bool",
          "name": "",
          "type": "bool"
        }
      ],
      "stateMutability": "view",
      "type": "function",
      "constant": true
    },
    {
      "inputs": [
        {
          "internalType": "uint16",
          "name": "_transferTaxRate",
          "type": "uint16"
        }
      ],
      "name": "updateTransferTaxRate",
      "outputs": [],
      "stateMutability": "nonpayable",
      "type": "function"
    },
    {
      "inputs": [
        {
          "internalType": "uint16",
          "name": "_burnRate",
          "type": "uint16"
        }
      ],
      "name": "updateBurnRate",
      "outputs": [],
      "stateMutability": "nonpayable",
      "type": "function"
    },
    {
      "inputs": [
        {
          "internalType": "uint16",
          "name": "_maxTransferAmountRate",
          "type": "uint16"
        }
      ],
      "name": "updateMaxTransferAmountRate",
      "outputs": [],
      "stateMutability": "nonpayable",
      "type": "function"
    },
    {
      "inputs": [
        {
          "internalType": "uint256",
          "name": "_minAmount",
          "type": "uint256"
        }
      ],
      "name": "updateMinAmountToLiquify",
      "outputs": [],
      "stateMutability": "nonpayable",
      "type": "function"
    },
    {
      "inputs": [
        {
          "internalType": "address",
          "name": "_account",
          "type": "address"
        },
        {
          "internalType": "bool",
          "name": "_excluded",
          "type": "bool"
        }
      ],
      "name": "setExcludedFromAntiWhale",
      "outputs": [],
      "stateMutability": "nonpayable",
      "type": "function"
    },
    {
      "inputs": [
        {
          "internalType": "bool",
          "name": "_enabled",
          "type": "bool"
        }
      ],
      "name": "updateSwapAndLiquifyEnabled",
      "outputs": [],
      "stateMutability": "nonpayable",
      "type": "function"
    },
    {
      "inputs": [
        {
          "internalType": "address",
          "name": "_router",
          "type": "address"
        }
      ],
      "name": "updateShuttleSwapRouter",
      "outputs": [],
      "stateMutability": "nonpayable",
      "type": "function"
    },
    {
      "inputs": [],
      "name": "operator",
      "outputs": [
        {
          "internalType": "address",
          "name": "",
          "type": "address"
        }
      ],
      "stateMutability": "view",
      "type": "function",
      "constant": true
    },
    {
      "inputs": [
        {
          "internalType": "address",
          "name": "newOperator",
          "type": "address"
        }
      ],
      "name": "transferOperator",
      "outputs": [],
      "stateMutability": "nonpayable",
      "type": "function"
    },
    {
      "inputs": [
        {
          "internalType": "address",
          "name": "delegator",
          "type": "address"
        }
      ],
      "name": "delegates",
      "outputs": [
        {
          "internalType": "address",
          "name": "",
          "type": "address"
        }
      ],
      "stateMutability": "view",
      "type": "function",
      "constant": true
    },
    {
      "inputs": [
        {
          "internalType": "address",
          "name": "delegatee",
          "type": "address"
        }
      ],
      "name": "delegate",
      "outputs": [],
      "stateMutability": "nonpayable",
      "type": "function"
    },
    {
      "inputs": [
        {
          "internalType": "address",
          "name": "delegatee",
          "type": "address"
        },
        {
          "internalType": "uint256",
          "name": "nonce",
          "type": "uint256"
        },
        {
          "internalType": "uint256",
          "name": "expiry",
          "type": "uint256"
        },
        {
          "internalType": "uint8",
          "name": "v",
          "type": "uint8"
        },
        {
          "internalType": "bytes32",
          "name": "r",
          "type": "bytes32"
        },
        {
          "internalType": "bytes32",
          "name": "s",
          "type": "bytes32"
        }
      ],
      "name": "delegateBySig",
      "outputs": [],
      "stateMutability": "nonpayable",
      "type": "function"
    },
    {
      "inputs": [
        {
          "internalType": "address",
          "name": "account",
          "type": "address"
        }
      ],
      "name": "getCurrentVotes",
      "outputs": [
        {
          "internalType": "uint256",
          "name": "",
          "type": "uint256"
        }
      ],
      "stateMutability": "view",
      "type": "function",
      "constant": true
    },
    {
      "inputs": [
        {
          "internalType": "address",
          "name": "account",
          "type": "address"
        },
        {
          "internalType": "uint256",
          "name": "blockNumber",
          "type": "uint256"
        }
      ],
      "name": "getPriorVotes",
      "outputs": [
        {
          "internalType": "uint256",
          "name": "",
          "type": "uint256"
        }
      ],
      "stateMutability": "view",
      "type": "function",
      "constant": true
    }
  ],
  "bytecode": "0x60806040526101f4600660016101000a81548161ffff021916908361ffff1602179055506014600660036101000a81548161ffff021916908361ffff1602179055506101f4600660056101000a81548161ffff021916908361ffff1602179055506000600860006101000a81548160ff021916908315150217905550681b1ae4d6e2ef5000006009553480156200009557600080fd5b506040518060400160405280600d81526020017f53687574746c6520546f6b656e000000000000000000000000000000000000008152506040518060400160405280600781526020017f53485554544c45000000000000000000000000000000000000000000000000008152506000620001146200043760201b60201c565b9050806000806101000a81548173ffffffffffffffffffffffffffffffffffffffff021916908373ffffffffffffffffffffffffffffffffffffffff1602179055508073ffffffffffffffffffffffffffffffffffffffff16600073ffffffffffffffffffffffffffffffffffffffff167f8be0079c531659141344cd1fd0a4f28419497f9722a3daafe3b4186f6b6457e060405160405180910390a3508160049080519060200190620001ca9291906200043f565b508060059080519060200190620001e39291906200043f565b506012600660006101000a81548160ff021916908360ff1602179055505050620002126200043760201b60201c565b600c60006101000a81548173ffffffffffffffffffffffffffffffffffffffff021916908373ffffffffffffffffffffffffffffffffffffffff160217905550600c60009054906101000a900473ffffffffffffffffffffffffffffffffffffffff1673ffffffffffffffffffffffffffffffffffffffff16600073ffffffffffffffffffffffffffffffffffffffff167f74da04524d50c64947f5dd5381ef1a4dca5cba8ed1d816243f9e48aa0b5617ed60405160405180910390a36001600760003373ffffffffffffffffffffffffffffffffffffffff1673ffffffffffffffffffffffffffffffffffffffff16815260200190815260200160002060006101000a81548160ff0219169083151502179055506001600760008073ffffffffffffffffffffffffffffffffffffffff1673ffffffffffffffffffffffffffffffffffffffff16815260200190815260200160002060006101000a81548160ff0219169083151502179055506001600760003073ffffffffffffffffffffffffffffffffffffffff1673ffffffffffffffffffffffffffffffffffffffff16815260200190815260200160002060006101000a81548160ff02191690831515021790555060016007600061dead73ffffffffffffffffffffffffffffffffffffffff1673ffffffffffffffffffffffffffffffffffffffff16815260200190815260200160002060006101000a81548160ff021916908315150217905550620004e5565b600033905090565b828054600181600116156101000203166002900490600052602060002090601f016020900481019282601f106200048257805160ff1916838001178555620004b3565b82800160010185558215620004b3579182015b82811115620004b257825182559160200191906001019062000495565b5b509050620004c29190620004c6565b5090565b5b80821115620004e1576000816000905550600101620004c7565b5090565b61550680620004f56000396000f3fe60806040526004361061028c5760003560e01c8063893d20e81161015a578063c1084b1b116100c1578063dd62ed3e1161007a578063dd62ed3e14610f8f578063e7a324dc14611014578063f1127ed81461103f578063f2fde38b146110c1578063f607f2b414611112578063fccc28131461115157610293565b8063c1084b1b14610dae578063c3cda52014610def578063c7f59a6714610e75578063c8135ab314610ed2578063d38b84f114610f13578063d824835814610f6457610293565b8063a457c2d711610113578063a457c2d714610bde578063a9059cbb14610c4f578063a9e7572314610cc0578063b4b5ea5714610ceb578063b65d08b014610d50578063bed9985014610d7f57610293565b8063893d20e814610a035780638da5cb5b14610a4457806395d89b4114610a855780639f9a4e7f14610b15578063a0712d6814610b52578063a392e67414610ba357610293565b80633ff8bf2e116101fe5780636a141e2c116101b75780636a141e2c146108095780636fcfff451461084857806370a08231146108b3578063715018a614610918578063782d6fe11461092f5780637ecebe001461099e57610293565b80633ff8bf2e1461064557806340c10f19146106745780634a74bb02146106cf578063570ca735146106fc578063587cde1e1461073d5780635c19a95c146107b857610293565b806323b872dd1161025057806323b872dd1461041e578063269f534c146104af57806329605e7714610516578063313ce56714610567578063376c23911461059557806339509351146105d457610293565b806306fdde0314610298578063095ea7b31461032857806318160ddd146103995780631ad9339a146103c457806320606b70146103f357610293565b3661029357005b600080fd5b3480156102a457600080fd5b506102ad611192565b6040518080602001828103825283818151815260200191508051906020019080838360005b838110156102ed5780820151818401526020810190506102d2565b50505050905090810190601f16801561031a5780820380516001836020036101000a031916815260200191505b509250505060405180910390f35b34801561033457600080fd5b506103816004803603604081101561034b57600080fd5b81019080803573ffffffffffffffffffffffffffffffffffffffff16906020019092919080359060200190929190505050611234565b60405180821515815260200191505060405180910390f35b3480156103a557600080fd5b506103ae611252565b6040518082815260200191505060405180910390f35b3480156103d057600080fd5b506103d961125c565b604051808261ffff16815260200191505060405180910390f35b3480156103ff57600080fd5b50610408611262565b6040518082815260200191505060405180910390f35b34801561042a57600080fd5b506104976004803603606081101561044157600080fd5b81019080803573ffffffffffffffffffffffffffffffffffffffff169060200190929190803573ffffffffffffffffffffffffffffffffffffffff16906020019092919080359060200190929190505050611286565b60405180821515815260200191505060405180910390f35b3480156104bb57600080fd5b506104fe600480360360208110156104d257600080fd5b81019080803573ffffffffffffffffffffffffffffffffffffffff16906020019092919050505061135f565b60405180821515815260200191505060405180910390f35b34801561052257600080fd5b506105656004803603602081101561053957600080fd5b81019080803573ffffffffffffffffffffffffffffffffffffffff1690602001909291905050506113b5565b005b34801561057357600080fd5b5061057c6115a1565b604051808260ff16815260200191505060405180910390f35b3480156105a157600080fd5b506105d2600480360360208110156105b857600080fd5b81019080803561ffff1690602001909291905050506115b8565b005b3480156105e057600080fd5b5061062d600480360360408110156105f757600080fd5b81019080803573ffffffffffffffffffffffffffffffffffffffff1690602001909291908035906020019092919050505061174f565b60405180821515815260200191505060405180910390f35b34801561065157600080fd5b5061065a611802565b604051808261ffff16815260200191505060405180910390f35b34801561068057600080fd5b506106cd6004803603604081101561069757600080fd5b81019080803573ffffffffffffffffffffffffffffffffffffffff16906020019092919080359060200190929190505050611816565b005b3480156106db57600080fd5b506106e4611957565b60405180821515815260200191505060405180910390f35b34801561070857600080fd5b5061071161196a565b604051808273ffffffffffffffffffffffffffffffffffffffff16815260200191505060405180910390f35b34801561074957600080fd5b5061078c6004803603602081101561076057600080fd5b81019080803573ffffffffffffffffffffffffffffffffffffffff169060200190929190505050611994565b604051808273ffffffffffffffffffffffffffffffffffffffff16815260200191505060405180910390f35b3480156107c457600080fd5b50610807600480360360208110156107db57600080fd5b81019080803573ffffffffffffffffffffffffffffffffffffffff1690602001909291905050506119fd565b005b34801561081557600080fd5b506108466004803603602081101561082c57600080fd5b81019080803561ffff169060200190929190505050611a0a565b005b34801561085457600080fd5b506108976004803603602081101561086b57600080fd5b81019080803573ffffffffffffffffffffffffffffffffffffffff169060200190929190505050611b9d565b604051808263ffffffff16815260200191505060405180910390f35b3480156108bf57600080fd5b50610902600480360360208110156108d657600080fd5b81019080803573ffffffffffffffffffffffffffffffffffffffff169060200190929190505050611bc0565b6040518082815260200191505060405180910390f35b34801561092457600080fd5b5061092d611c09565b005b34801561093b57600080fd5b506109886004803603604081101561095257600080fd5b81019080803573ffffffffffffffffffffffffffffffffffffffff16906020019092919080359060200190929190505050611d8f565b6040518082815260200191505060405180910390f35b3480156109aa57600080fd5b506109ed600480360360208110156109c157600080fd5b81019080803573ffffffffffffffffffffffffffffffffffffffff169060200190929190505050612150565b6040518082815260200191505060405180910390f35b348015610a0f57600080fd5b50610a18612168565b604051808273ffffffffffffffffffffffffffffffffffffffff16815260200191505060405180910390f35b348015610a5057600080fd5b50610a59612177565b604051808273ffffffffffffffffffffffffffffffffffffffff16815260200191505060405180910390f35b348015610a9157600080fd5b50610a9a6121a0565b6040518080602001828103825283818151815260200191508051906020019080838360005b83811015610ada578082015181840152602081019050610abf565b50505050905090810190601f168015610b075780820380516001836020036101000a031916815260200191505b509250505060405180910390f35b348015610b2157600080fd5b50610b5060048036036020811015610b3857600080fd5b81019080803515159060200190929190505050612242565b005b348015610b5e57600080fd5b50610b8b60048036036020811015610b7557600080fd5b8101908080359060200190929190505050612355565b60405180821515815260200191505060405180910390f35b348015610baf57600080fd5b50610bdc60048036036020811015610bc657600080fd5b8101908080359060200190929190505050612439565b005b348015610bea57600080fd5b50610c3760048036036040811015610c0157600080fd5b81019080803573ffffffffffffffffffffffffffffffffffffffff16906020019092919080359060200190929190505050612541565b60405180821515815260200191505060405180910390f35b348015610c5b57600080fd5b50610ca860048036036040811015610c7257600080fd5b81019080803573ffffffffffffffffffffffffffffffffffffffff1690602001909291908035906020019092919050505061260e565b60405180821515815260200191505060405180910390f35b348015610ccc57600080fd5b50610cd561262c565b6040518082815260200191505060405180910390f35b348015610cf757600080fd5b50610d3a60048036036020811015610d0e57600080fd5b81019080803573ffffffffffffffffffffffffffffffffffffffff169060200190929190505050612675565b6040518082815260200191505060405180910390f35b348015610d5c57600080fd5b50610d6561274b565b604051808261ffff16815260200191505060405180910390f35b348015610d8b57600080fd5b50610d9461275f565b604051808261ffff16815260200191505060405180910390f35b348015610dba57600080fd5b50610dc3612773565b604051808273ffffffffffffffffffffffffffffffffffffffff16815260200191505060405180910390f35b348015610dfb57600080fd5b50610e73600480360360c0811015610e1257600080fd5b81019080803573ffffffffffffffffffffffffffffffffffffffff1690602001909291908035906020019092919080359060200190929190803560ff1690602001909291908035906020019092919080359060200190929190505050612799565b005b348015610e8157600080fd5b50610ed060048036036040811015610e9857600080fd5b81019080803573ffffffffffffffffffffffffffffffffffffffff169060200190929190803515159060200190929190505050612afd565b005b348015610ede57600080fd5b50610ee7612bfe565b604051808273ffffffffffffffffffffffffffffffffffffffff16815260200191505060405180910390f35b348015610f1f57600080fd5b50610f6260048036036020811015610f3657600080fd5b81019080803573ffffffffffffffffffffffffffffffffffffffff169060200190929190505050612c24565b005b348015610f7057600080fd5b50610f796130af565b6040518082815260200191505060405180910390f35b348015610f9b57600080fd5b50610ffe60048036036040811015610fb257600080fd5b81019080803573ffffffffffffffffffffffffffffffffffffffff169060200190929190803573ffffffffffffffffffffffffffffffffffffffff1690602001909291905050506130b5565b6040518082815260200191505060405180910390f35b34801561102057600080fd5b5061102961313c565b6040518082815260200191505060405180910390f35b34801561104b57600080fd5b5061109e6004803603604081101561106257600080fd5b81019080803573ffffffffffffffffffffffffffffffffffffffff169060200190929190803563ffffffff169060200190929190505050613160565b604051808363ffffffff1681526020018281526020019250505060405180910390f35b3480156110cd57600080fd5b50611110600480360360208110156110e457600080fd5b81019080803573ffffffffffffffffffffffffffffffffffffffff1690602001909291905050506131a1565b005b34801561111e57600080fd5b5061114f6004803603602081101561113557600080fd5b81019080803561ffff1690602001909291905050506133ac565b005b34801561115d57600080fd5b5061116661353e565b604051808273ffffffffffffffffffffffffffffffffffffffff16815260200191505060405180910390f35b606060048054600181600116156101000203166002900480601f01602080910402602001604051908101604052809291908181526020018280546001816001161561010002031660029004801561122a5780601f106111ff5761010080835404028352916020019161122a565b820191906000526020600020905b81548152906001019060200180831161120d57829003601f168201915b5050505050905090565b6000611248611241613544565b848461354c565b6001905092915050565b6000600354905090565b6103e881565b7f8cad95687ba82c2ce50e74f7b754645e5117c3a5bec8151c0726d5857980a86681565b6000611293848484613743565b6113548461129f613544565b61134f8560405180606001604052806028815260200161528160289139600260008b73ffffffffffffffffffffffffffffffffffffffff1673ffffffffffffffffffffffffffffffffffffffff1681526020019081526020016000206000611305613544565b73ffffffffffffffffffffffffffffffffffffffff1673ffffffffffffffffffffffffffffffffffffffff16815260200190815260200160002054613bf79092919063ffffffff16565b61354c565b600190509392505050565b6000600760008373ffffffffffffffffffffffffffffffffffffffff1673ffffffffffffffffffffffffffffffffffffffff16815260200190815260200160002060009054906101000a900460ff169050919050565b3373ffffffffffffffffffffffffffffffffffffffff16600c60009054906101000a900473ffffffffffffffffffffffffffffffffffffffff1673ffffffffffffffffffffffffffffffffffffffff161461145b576040517f08c379a00000000000000000000000000000000000000000000000000000000081526004018080602001828103825260248152602001806153546024913960400191505060405180910390fd5b600073ffffffffffffffffffffffffffffffffffffffff168173ffffffffffffffffffffffffffffffffffffffff1614156114e1576040517f08c379a000000000000000000000000000000000000000000000000000000000815260040180806020018281038252603b8152602001806151ce603b913960400191505060405180910390fd5b8073ffffffffffffffffffffffffffffffffffffffff16600c60009054906101000a900473ffffffffffffffffffffffffffffffffffffffff1673ffffffffffffffffffffffffffffffffffffffff167f74da04524d50c64947f5dd5381ef1a4dca5cba8ed1d816243f9e48aa0b5617ed60405160405180910390a380600c60006101000a81548173ffffffffffffffffffffffffffffffffffffffff021916908373ffffffffffffffffffffffffffffffffffffffff16021790555050565b6000600660009054906101000a900460ff16905090565b3373ffffffffffffffffffffffffffffffffffffffff16600c60009054906101000a900473ffffffffffffffffffffffffffffffffffffffff1673ffffffffffffffffffffffffffffffffffffffff161461165e576040517f08c379a00000000000000000000000000000000000000000000000000000000081526004018080602001828103825260248152602001806153546024913960400191505060405180910390fd5b6103e861ffff168161ffff1611156116c1576040517f08c379a00000000000000000000000000000000000000000000000000000000081526004018080602001828103825260538152602001806150e36053913960600191505060405180910390fd5b3373ffffffffffffffffffffffffffffffffffffffff167fe9d5c8ee2a65d4fb859c680669d8f902172d53e3f15f9f11108a31bbada4b70b600660019054906101000a900461ffff1683604051808361ffff1681526020018261ffff1681526020019250505060405180910390a280600660016101000a81548161ffff021916908361ffff16021790555050565b60006117f861175c613544565b846117f3856002600061176d613544565b73ffffffffffffffffffffffffffffffffffffffff1673ffffffffffffffffffffffffffffffffffffffff16815260200190815260200160002060008973ffffffffffffffffffffffffffffffffffffffff1673ffffffffffffffffffffffffffffffffffffffff16815260200190815260200160002054613cb790919063ffffffff16565b61354c565b6001905092915050565b600660059054906101000a900461ffff1681565b61181e613544565b73ffffffffffffffffffffffffffffffffffffffff1660008054906101000a900473ffffffffffffffffffffffffffffffffffffffff1673ffffffffffffffffffffffffffffffffffffffff16146118de576040517f08c379a00000000000000000000000000000000000000000000000000000000081526004018080602001828103825260208152602001807f4f776e61626c653a2063616c6c6572206973206e6f7420746865206f776e657281525060200191505060405180910390fd5b6118e88282613d3f565b6119536000600d60008573ffffffffffffffffffffffffffffffffffffffff1673ffffffffffffffffffffffffffffffffffffffff16815260200190815260200160002060009054906101000a900473ffffffffffffffffffffffffffffffffffffffff1683613efc565b5050565b600860009054906101000a900460ff1681565b6000600c60009054906101000a900473ffffffffffffffffffffffffffffffffffffffff16905090565b6000600d60008373ffffffffffffffffffffffffffffffffffffffff1673ffffffffffffffffffffffffffffffffffffffff16815260200190815260200160002060009054906101000a900473ffffffffffffffffffffffffffffffffffffffff169050919050565b611a073382614199565b50565b3373ffffffffffffffffffffffffffffffffffffffff16600c60009054906101000a900473ffffffffffffffffffffffffffffffffffffffff1673ffffffffffffffffffffffffffffffffffffffff1614611ab0576040517f08c379a00000000000000000000000000000000000000000000000000000000081526004018080602001828103825260248152602001806153546024913960400191505060405180910390fd5b6103e88161ffff161115611b0f576040517f08c379a00000000000000000000000000000000000000000000000000000000081526004018080602001828103825260608152602001806152a96060913960600191505060405180910390fd5b3373ffffffffffffffffffffffffffffffffffffffff167fb62a50fc861a770636e85357becb3b82a32e911106609d4985871eaf29011e08600660059054906101000a900461ffff1683604051808361ffff1681526020018261ffff1681526020019250505060405180910390a280600660056101000a81548161ffff021916908361ffff16021790555050565b600f6020528060005260406000206000915054906101000a900463ffffffff1681565b6000600160008373ffffffffffffffffffffffffffffffffffffffff1673ffffffffffffffffffffffffffffffffffffffff168152602001908152602001600020549050919050565b611c11613544565b73ffffffffffffffffffffffffffffffffffffffff1660008054906101000a900473ffffffffffffffffffffffffffffffffffffffff1673ffffffffffffffffffffffffffffffffffffffff1614611cd1576040517f08c379a00000000000000000000000000000000000000000000000000000000081526004018080602001828103825260208152602001807f4f776e61626c653a2063616c6c6572206973206e6f7420746865206f776e657281525060200191505060405180910390fd5b600073ffffffffffffffffffffffffffffffffffffffff1660008054906101000a900473ffffffffffffffffffffffffffffffffffffffff1673ffffffffffffffffffffffffffffffffffffffff167f8be0079c531659141344cd1fd0a4f28419497f9722a3daafe3b4186f6b6457e060405160405180910390a360008060006101000a81548173ffffffffffffffffffffffffffffffffffffffff021916908373ffffffffffffffffffffffffffffffffffffffff160217905550565b6000438210611de9576040517f08c379a000000000000000000000000000000000000000000000000000000000815260040180806020018281038252602a815260200180615309602a913960400191505060405180910390fd5b6000600f60008573ffffffffffffffffffffffffffffffffffffffff1673ffffffffffffffffffffffffffffffffffffffff16815260200190815260200160002060009054906101000a900463ffffffff16905060008163ffffffff161415611e5657600091505061214a565b82600e60008673ffffffffffffffffffffffffffffffffffffffff1673ffffffffffffffffffffffffffffffffffffffff16815260200190815260200160002060006001840363ffffffff1663ffffffff16815260200190815260200160002060000160009054906101000a900463ffffffff1663ffffffff1611611f4057600e60008573ffffffffffffffffffffffffffffffffffffffff1673ffffffffffffffffffffffffffffffffffffffff16815260200190815260200160002060006001830363ffffffff1663ffffffff1681526020019081526020016000206001015491505061214a565b82600e60008673ffffffffffffffffffffffffffffffffffffffff1673ffffffffffffffffffffffffffffffffffffffff16815260200190815260200160002060008063ffffffff16815260200190815260200160002060000160009054906101000a900463ffffffff1663ffffffff161115611fc157600091505061214a565b6000806001830390505b8163ffffffff168163ffffffff1611156120e4576000600283830363ffffffff1681611ff357fe5b0482039050612000615079565b600e60008973ffffffffffffffffffffffffffffffffffffffff1673ffffffffffffffffffffffffffffffffffffffff16815260200190815260200160002060008363ffffffff1663ffffffff1681526020019081526020016000206040518060400160405290816000820160009054906101000a900463ffffffff1663ffffffff1663ffffffff168152602001600182015481525050905086816000015163ffffffff1614156120bc5780602001519550505050505061214a565b86816000015163ffffffff1610156120d6578193506120dd565b6001820392505b5050611fcb565b600e60008773ffffffffffffffffffffffffffffffffffffffff1673ffffffffffffffffffffffffffffffffffffffff16815260200190815260200160002060008363ffffffff1663ffffffff1681526020019081526020016000206001015493505050505b92915050565b60106020528060005260406000206000915090505481565b6000612172612177565b905090565b60008060009054906101000a900473ffffffffffffffffffffffffffffffffffffffff16905090565b606060058054600181600116156101000203166002900480601f0160208091040260200160405190810160405280929190818152602001828054600181600116156101000203166002900480156122385780601f1061220d57610100808354040283529160200191612238565b820191906000526020600020905b81548152906001019060200180831161221b57829003601f168201915b5050505050905090565b3373ffffffffffffffffffffffffffffffffffffffff16600c60009054906101000a900473ffffffffffffffffffffffffffffffffffffffff1673ffffffffffffffffffffffffffffffffffffffff16146122e8576040517f08c379a00000000000000000000000000000000000000000000000000000000081526004018080602001828103825260248152602001806153546024913960400191505060405180910390fd5b3373ffffffffffffffffffffffffffffffffffffffff167f3ca65588b29182880283bc8778fea5f01b351e01d874839a39a99e1c281a21138260405180821515815260200191505060405180910390a280600860006101000a81548160ff02191690831515021790555050565b600061235f613544565b73ffffffffffffffffffffffffffffffffffffffff1660008054906101000a900473ffffffffffffffffffffffffffffffffffffffff1673ffffffffffffffffffffffffffffffffffffffff161461241f576040517f08c379a00000000000000000000000000000000000000000000000000000000081526004018080602001828103825260208152602001807f4f776e61626c653a2063616c6c6572206973206e6f7420746865206f776e657281525060200191505060405180910390fd5b61243061242a613544565b83613d3f565b60019050919050565b3373ffffffffffffffffffffffffffffffffffffffff16600c60009054906101000a900473ffffffffffffffffffffffffffffffffffffffff1673ffffffffffffffffffffffffffffffffffffffff16146124df576040517f08c379a00000000000000000000000000000000000000000000000000000000081526004018080602001828103825260248152602001806153546024913960400191505060405180910390fd5b3373ffffffffffffffffffffffffffffffffffffffff167f54c7a13ff01698e4ed3550a23216585f8472c7b1515a932eac98c9a6d48990c560095483604051808381526020018281526020019250505060405180910390a28060098190555050565b600061260461254e613544565b846125ff856040518060600160405280602581526020016153c16025913960026000612578613544565b73ffffffffffffffffffffffffffffffffffffffff1673ffffffffffffffffffffffffffffffffffffffff16815260200190815260200160002060008a73ffffffffffffffffffffffffffffffffffffffff1673ffffffffffffffffffffffffffffffffffffffff16815260200190815260200160002054613bf79092919063ffffffff16565b61354c565b6001905092915050565b600061262261261b613544565b8484613743565b6001905092915050565b6000612670612710612662600660059054906101000a900461ffff1661ffff16612654611252565b61430a90919063ffffffff16565b61439090919063ffffffff16565b905090565b600080600f60008473ffffffffffffffffffffffffffffffffffffffff1673ffffffffffffffffffffffffffffffffffffffff16815260200190815260200160002060009054906101000a900463ffffffff16905060008163ffffffff16116126df576000612743565b600e60008473ffffffffffffffffffffffffffffffffffffffff1673ffffffffffffffffffffffffffffffffffffffff16815260200190815260200160002060006001830363ffffffff1663ffffffff168152602001908152602001600020600101545b915050919050565b600660019054906101000a900461ffff1681565b600660039054906101000a900461ffff1681565b600b60009054906101000a900473ffffffffffffffffffffffffffffffffffffffff1681565b60007f8cad95687ba82c2ce50e74f7b754645e5117c3a5bec8151c0726d5857980a8666127c4611192565b805190602001206127d36143da565b30604051602001808581526020018481526020018381526020018273ffffffffffffffffffffffffffffffffffffffff16815260200194505050505060405160208183030381529060405280519060200120905060007fe48329057bfd03d55e49b547132e39cffd9c1820ad7b9d4c5307691425d15adf888888604051602001808581526020018473ffffffffffffffffffffffffffffffffffffffff1681526020018381526020018281526020019450505050506040516020818303038152906040528051906020012090506000828260405160200180807f190100000000000000000000000000000000000000000000000000000000000081525060020183815260200182815260200192505050604051602081830303815290604052805190602001209050600060018288888860405160008152602001604052604051808581526020018460ff1681526020018381526020018281526020019450505050506020604051602081039080840390855afa158015612957573d6000803e3d6000fd5b505050602060405103519050600073ffffffffffffffffffffffffffffffffffffffff168173ffffffffffffffffffffffffffffffffffffffff1614156129e9576040517f08c379a00000000000000000000000000000000000000000000000000000000081526004018080602001828103825260298152602001806154a86029913960400191505060405180910390fd5b601060008273ffffffffffffffffffffffffffffffffffffffff1673ffffffffffffffffffffffffffffffffffffffff1681526020019081526020016000206000815480929190600101919050558914612a8e576040517f08c379a000000000000000000000000000000000000000000000000000000000815260040180806020018281038252602581526020018061515f6025913960400191505060405180910390fd5b87421115612ae7576040517f08c379a00000000000000000000000000000000000000000000000000000000081526004018080602001828103825260298152602001806151366029913960400191505060405180910390fd5b612af1818b614199565b50505050505050505050565b3373ffffffffffffffffffffffffffffffffffffffff16600c60009054906101000a900473ffffffffffffffffffffffffffffffffffffffff1673ffffffffffffffffffffffffffffffffffffffff1614612ba3576040517f08c379a00000000000000000000000000000000000000000000000000000000081526004018080602001828103825260248152602001806153546024913960400191505060405180910390fd5b80600760008473ffffffffffffffffffffffffffffffffffffffff1673ffffffffffffffffffffffffffffffffffffffff16815260200190815260200160002060006101000a81548160ff0219169083151502179055505050565b600a60009054906101000a900473ffffffffffffffffffffffffffffffffffffffff1681565b3373ffffffffffffffffffffffffffffffffffffffff16600c60009054906101000a900473ffffffffffffffffffffffffffffffffffffffff1673ffffffffffffffffffffffffffffffffffffffff1614612cca576040517f08c379a00000000000000000000000000000000000000000000000000000000081526004018080602001828103825260248152602001806153546024913960400191505060405180910390fd5b80600a60006101000a81548173ffffffffffffffffffffffffffffffffffffffff021916908373ffffffffffffffffffffffffffffffffffffffff160217905550600a60009054906101000a900473ffffffffffffffffffffffffffffffffffffffff1673ffffffffffffffffffffffffffffffffffffffff1663c45a01556040518163ffffffff1660e01b815260040160206040518083038186803b158015612d7357600080fd5b505afa158015612d87573d6000803e3d6000fd5b505050506040513d6020811015612d9d57600080fd5b810190808051906020019092919050505073ffffffffffffffffffffffffffffffffffffffff1663e6a4390530600a60009054906101000a900473ffffffffffffffffffffffffffffffffffffffff1673ffffffffffffffffffffffffffffffffffffffff1663ad5c46486040518163ffffffff1660e01b815260040160206040518083038186803b158015612e3257600080fd5b505afa158015612e46573d6000803e3d6000fd5b505050506040513d6020811015612e5c57600080fd5b81019080805190602001909291905050506040518363ffffffff1660e01b8152600401808373ffffffffffffffffffffffffffffffffffffffff1681526020018273ffffffffffffffffffffffffffffffffffffffff1681526020019250505060206040518083038186803b158015612ed457600080fd5b505afa158015612ee8573d6000803e3d6000fd5b505050506040513d6020811015612efe57600080fd5b8101908080519060200190929190505050600b60006101000a81548173ffffffffffffffffffffffffffffffffffffffff021916908373ffffffffffffffffffffffffffffffffffffffff160217905550600073ffffffffffffffffffffffffffffffffffffffff16600b60009054906101000a900473ffffffffffffffffffffffffffffffffffffffff1673ffffffffffffffffffffffffffffffffffffffff161415612ff7576040517f08c379a000000000000000000000000000000000000000000000000000000000815260040180806020018281038252603781526020018061524a6037913960400191505060405180910390fd5b600b60009054906101000a900473ffffffffffffffffffffffffffffffffffffffff1673ffffffffffffffffffffffffffffffffffffffff16600a60009054906101000a900473ffffffffffffffffffffffffffffffffffffffff1673ffffffffffffffffffffffffffffffffffffffff163373ffffffffffffffffffffffffffffffffffffffff167f746bd092d85e6244fe1c7842e0933f21afaad12cf4f4bab861c6647ec62e075b60405160405180910390a450565b60095481565b6000600260008473ffffffffffffffffffffffffffffffffffffffff1673ffffffffffffffffffffffffffffffffffffffff16815260200190815260200160002060008373ffffffffffffffffffffffffffffffffffffffff1673ffffffffffffffffffffffffffffffffffffffff16815260200190815260200160002054905092915050565b7fe48329057bfd03d55e49b547132e39cffd9c1820ad7b9d4c5307691425d15adf81565b600e602052816000526040600020602052806000526040600020600091509150508060000160009054906101000a900463ffffffff16908060010154905082565b6131a9613544565b73ffffffffffffffffffffffffffffffffffffffff1660008054906101000a900473ffffffffffffffffffffffffffffffffffffffff1673ffffffffffffffffffffffffffffffffffffffff1614613269576040517f08c379a00000000000000000000000000000000000000000000000000000000081526004018080602001828103825260208152602001807f4f776e61626c653a2063616c6c6572206973206e6f7420746865206f776e657281525060200191505060405180910390fd5b600073ffffffffffffffffffffffffffffffffffffffff168173ffffffffffffffffffffffffffffffffffffffff1614156132ef576040517f08c379a00000000000000000000000000000000000000000000000000000000081526004018080602001828103825260268152602001806151846026913960400191505060405180910390fd5b8073ffffffffffffffffffffffffffffffffffffffff1660008054906101000a900473ffffffffffffffffffffffffffffffffffffffff1673ffffffffffffffffffffffffffffffffffffffff167f8be0079c531659141344cd1fd0a4f28419497f9722a3daafe3b4186f6b6457e060405160405180910390a3806000806101000a81548173ffffffffffffffffffffffffffffffffffffffff021916908373ffffffffffffffffffffffffffffffffffffffff16021790555050565b3373ffffffffffffffffffffffffffffffffffffffff16600c60009054906101000a900473ffffffffffffffffffffffffffffffffffffffff1673ffffffffffffffffffffffffffffffffffffffff1614613452576040517f08c379a00000000000000000000000000000000000000000000000000000000081526004018080602001828103825260248152602001806153546024913960400191505060405180910390fd5b60648161ffff1611156134b0576040517f08c379a000000000000000000000000000000000000000000000000000000000815260040180806020018281038252604481526020018061541d6044913960600191505060405180910390fd5b3373ffffffffffffffffffffffffffffffffffffffff167f3eec69630b6f49d4e10eec296fce4baddec5f34c5430fb2cd72f8c4218f63fd0600660039054906101000a900461ffff1683604051808361ffff1681526020018261ffff1681526020019250505060405180910390a280600660036101000a81548161ffff021916908361ffff16021790555050565b61dead81565b600033905090565b600073ffffffffffffffffffffffffffffffffffffffff168373ffffffffffffffffffffffffffffffffffffffff1614156135d2576040517f08c379a00000000000000000000000000000000000000000000000000000000081526004018080602001828103825260248152602001806150bf6024913960400191505060405180910390fd5b600073ffffffffffffffffffffffffffffffffffffffff168273ffffffffffffffffffffffffffffffffffffffff161415613658576040517f08c379a00000000000000000000000000000000000000000000000000000000081526004018080602001828103825260228152602001806154616022913960400191505060405180910390fd5b80600260008573ffffffffffffffffffffffffffffffffffffffff1673ffffffffffffffffffffffffffffffffffffffff16815260200190815260200160002060008473ffffffffffffffffffffffffffffffffffffffff1673ffffffffffffffffffffffffffffffffffffffff168152602001908152602001600020819055508173ffffffffffffffffffffffffffffffffffffffff168373ffffffffffffffffffffffffffffffffffffffff167f8c5be1e5ebec7d5bd14f71427d1e84f3dd0314c0f7b2291e5b200ac8c7c3b925836040518082815260200191505060405180910390a3505050565b828282600061375061262c565b111561386d5760001515600760008573ffffffffffffffffffffffffffffffffffffffff1673ffffffffffffffffffffffffffffffffffffffff16815260200190815260200160002060009054906101000a900460ff161515148015613806575060001515600760008473ffffffffffffffffffffffffffffffffffffffff1673ffffffffffffffffffffffffffffffffffffffff16815260200190815260200160002060009054906101000a900460ff161515145b1561386c5761381361262c565b81111561386b576040517f08c379a00000000000000000000000000000000000000000000000000000000081526004018080602001828103825260418152602001806152096041913960600191505060405180910390fd5b5b5b60011515600860009054906101000a900460ff1615151480156138a3575060001515600b60149054906101000a900460ff161515145b80156138fe5750600073ffffffffffffffffffffffffffffffffffffffff16600a60009054906101000a900473ffffffffffffffffffffffffffffffffffffffff1673ffffffffffffffffffffffffffffffffffffffff1614155b80156139595750600073ffffffffffffffffffffffffffffffffffffffff16600b60009054906101000a900473ffffffffffffffffffffffffffffffffffffffff1673ffffffffffffffffffffffffffffffffffffffff1614155b80156139b35750600b60009054906101000a900473ffffffffffffffffffffffffffffffffffffffff1673ffffffffffffffffffffffffffffffffffffffff168673ffffffffffffffffffffffffffffffffffffffff1614155b80156139f257506139c2612177565b73ffffffffffffffffffffffffffffffffffffffff168673ffffffffffffffffffffffffffffffffffffffff1614155b15613a00576139ff6143e7565b5b61dead73ffffffffffffffffffffffffffffffffffffffff168573ffffffffffffffffffffffffffffffffffffffff161480613a5057506000600660019054906101000a900461ffff1661ffff16145b15613a6557613a60868686614557565b613bef565b6000613aa2612710613a94600660019054906101000a900461ffff1661ffff168861430a90919063ffffffff16565b61439090919063ffffffff16565b90506000613ae06064613ad2600660039054906101000a900461ffff1661ffff168561430a90919063ffffffff16565b61439090919063ffffffff16565b90506000613af7828461481190919063ffffffff16565b90508082018314613b53576040517f08c379a00000000000000000000000000000000000000000000000000000000081526004018080602001828103825260258152602001806154836025913960400191505060405180910390fd5b6000613b68848961481190919063ffffffff16565b90508381018814613bc4576040517f08c379a00000000000000000000000000000000000000000000000000000000081526004018080602001828103825260248152602001806151aa6024913960400191505060405180910390fd5b613bd18a61dead85614557565b613bdc8a3084614557565b613be78a8a83614557565b809750505050505b505050505050565b6000838311158290613ca4576040517f08c379a00000000000000000000000000000000000000000000000000000000081526004018080602001828103825283818151815260200191508051906020019080838360005b83811015613c69578082015181840152602081019050613c4e565b50505050905090810190601f168015613c965780820380516001836020036101000a031916815260200191505b509250505060405180910390fd5b5060008385039050809150509392505050565b600080828401905083811015613d35576040517f08c379a000000000000000000000000000000000000000000000000000000000815260040180806020018281038252601b8152602001807f536166654d6174683a206164646974696f6e206f766572666c6f77000000000081525060200191505060405180910390fd5b8091505092915050565b600073ffffffffffffffffffffffffffffffffffffffff168273ffffffffffffffffffffffffffffffffffffffff161415613de2576040517f08c379a000000000000000000000000000000000000000000000000000000000815260040180806020018281038252601f8152602001807f42455032303a206d696e7420746f20746865207a65726f20616464726573730081525060200191505060405180910390fd5b613df781600354613cb790919063ffffffff16565b600381905550613e4f81600160008573ffffffffffffffffffffffffffffffffffffffff1673ffffffffffffffffffffffffffffffffffffffff16815260200190815260200160002054613cb790919063ffffffff16565b600160008473ffffffffffffffffffffffffffffffffffffffff1673ffffffffffffffffffffffffffffffffffffffff168152602001908152602001600020819055508173ffffffffffffffffffffffffffffffffffffffff16600073ffffffffffffffffffffffffffffffffffffffff167fddf252ad1be2c89b69c2b068fc378daa952ba7f163c4a11628f55a4df523b3ef836040518082815260200191505060405180910390a35050565b8173ffffffffffffffffffffffffffffffffffffffff168373ffffffffffffffffffffffffffffffffffffffff1614158015613f385750600081115b1561419457600073ffffffffffffffffffffffffffffffffffffffff168373ffffffffffffffffffffffffffffffffffffffff1614614068576000600f60008573ffffffffffffffffffffffffffffffffffffffff1673ffffffffffffffffffffffffffffffffffffffff16815260200190815260200160002060009054906101000a900463ffffffff1690506000808263ffffffff1611613fdb57600061403f565b600e60008673ffffffffffffffffffffffffffffffffffffffff1673ffffffffffffffffffffffffffffffffffffffff16815260200190815260200160002060006001840363ffffffff1663ffffffff168152602001908152602001600020600101545b90506000614056848361481190919063ffffffff16565b90506140648684848461485b565b5050505b600073ffffffffffffffffffffffffffffffffffffffff168273ffffffffffffffffffffffffffffffffffffffff1614614193576000600f60008473ffffffffffffffffffffffffffffffffffffffff1673ffffffffffffffffffffffffffffffffffffffff16815260200190815260200160002060009054906101000a900463ffffffff1690506000808263ffffffff161161410657600061416a565b600e60008573ffffffffffffffffffffffffffffffffffffffff1673ffffffffffffffffffffffffffffffffffffffff16815260200190815260200160002060006001840363ffffffff1663ffffffff168152602001908152602001600020600101545b905060006141818483613cb790919063ffffffff16565b905061418f8584848461485b565b5050505b5b505050565b6000600d60008473ffffffffffffffffffffffffffffffffffffffff1673ffffffffffffffffffffffffffffffffffffffff16815260200190815260200160002060009054906101000a900473ffffffffffffffffffffffffffffffffffffffff169050600061420884611bc0565b905082600d60008673ffffffffffffffffffffffffffffffffffffffff1673ffffffffffffffffffffffffffffffffffffffff16815260200190815260200160002060006101000a81548173ffffffffffffffffffffffffffffffffffffffff021916908373ffffffffffffffffffffffffffffffffffffffff1602179055508273ffffffffffffffffffffffffffffffffffffffff168273ffffffffffffffffffffffffffffffffffffffff168573ffffffffffffffffffffffffffffffffffffffff167f3134e8a2e6d97e929a7e54011ea5485d7d196dd5f0ba4d4ef95803e8e3fc257f60405160405180910390a4614304828483613efc565b50505050565b60008083141561431d576000905061438a565b600082840290508284828161432e57fe5b0414614385576040517f08c379a00000000000000000000000000000000000000000000000000000000081526004018080602001828103825260218152602001806153336021913960400191505060405180910390fd5b809150505b92915050565b60006143d283836040518060400160405280601a81526020017f536166654d6174683a206469766973696f6e206279207a65726f000000000000815250614aef565b905092915050565b6000804690508091505090565b6001600b60146101000a81548160ff0219169083151502179055506000600660019054906101000a900461ffff1690506000600660016101000a81548161ffff021916908361ffff160217905550600061444030611bc0565b9050600061444c61262c565b905080821161445b578161445d565b805b9150600954821061451a5760006009549050600061448560028361439090919063ffffffff16565b9050600061449c828461481190919063ffffffff16565b905060004790506144ac83614bb5565b60006144c1824761481190919063ffffffff16565b90506144cd8382614e69565b7f17bbfb9a6069321b6ded73bd96327c9e6b7212a5cd51ff219cd61370acafb56184828560405180848152602001838152602001828152602001935050505060405180910390a150505050505b505080600660016101000a81548161ffff021916908361ffff160217905550506000600b60146101000a81548160ff021916908315150217905550565b600073ffffffffffffffffffffffffffffffffffffffff168373ffffffffffffffffffffffffffffffffffffffff1614156145dd576040517f08c379a000000000000000000000000000000000000000000000000000000000815260040180806020018281038252602581526020018061509a6025913960400191505060405180910390fd5b600073ffffffffffffffffffffffffffffffffffffffff168273ffffffffffffffffffffffffffffffffffffffff161415614663576040517f08c379a000000000000000000000000000000000000000000000000000000000815260040180806020018281038252602381526020018061539e6023913960400191505060405180910390fd5b6146cf8160405180606001604052806026815260200161537860269139600160008773ffffffffffffffffffffffffffffffffffffffff1673ffffffffffffffffffffffffffffffffffffffff16815260200190815260200160002054613bf79092919063ffffffff16565b600160008573ffffffffffffffffffffffffffffffffffffffff1673ffffffffffffffffffffffffffffffffffffffff1681526020019081526020016000208190555061476481600160008573ffffffffffffffffffffffffffffffffffffffff1673ffffffffffffffffffffffffffffffffffffffff16815260200190815260200160002054613cb790919063ffffffff16565b600160008473ffffffffffffffffffffffffffffffffffffffff1673ffffffffffffffffffffffffffffffffffffffff168152602001908152602001600020819055508173ffffffffffffffffffffffffffffffffffffffff168373ffffffffffffffffffffffffffffffffffffffff167fddf252ad1be2c89b69c2b068fc378daa952ba7f163c4a11628f55a4df523b3ef836040518082815260200191505060405180910390a3505050565b600061485383836040518060400160405280601e81526020017f536166654d6174683a207375627472616374696f6e206f766572666c6f770000815250613bf7565b905092915050565b600061487f436040518060600160405280603781526020016153e660379139614fbe565b905060008463ffffffff1611801561491457508063ffffffff16600e60008773ffffffffffffffffffffffffffffffffffffffff1673ffffffffffffffffffffffffffffffffffffffff16815260200190815260200160002060006001870363ffffffff1663ffffffff16815260200190815260200160002060000160009054906101000a900463ffffffff1663ffffffff16145b156149855781600e60008773ffffffffffffffffffffffffffffffffffffffff1673ffffffffffffffffffffffffffffffffffffffff16815260200190815260200160002060006001870363ffffffff1663ffffffff16815260200190815260200160002060010181905550614a92565b60405180604001604052808263ffffffff16815260200183815250600e60008773ffffffffffffffffffffffffffffffffffffffff1673ffffffffffffffffffffffffffffffffffffffff16815260200190815260200160002060008663ffffffff1663ffffffff16815260200190815260200160002060008201518160000160006101000a81548163ffffffff021916908363ffffffff1602179055506020820151816001015590505060018401600f60008773ffffffffffffffffffffffffffffffffffffffff1673ffffffffffffffffffffffffffffffffffffffff16815260200190815260200160002060006101000a81548163ffffffff021916908363ffffffff1602179055505b8473ffffffffffffffffffffffffffffffffffffffff167fdec2bacdd2f05b59de34da9b523dff8be42e5e38e818c82fdb0bae774387a7248484604051808381526020018281526020019250505060405180910390a25050505050565b60008083118290614b9b576040517f08c379a00000000000000000000000000000000000000000000000000000000081526004018080602001828103825283818151815260200191508051906020019080838360005b83811015614b60578082015181840152602081019050614b45565b50505050905090810190601f168015614b8d5780820380516001836020036101000a031916815260200191505b509250505060405180910390fd5b506000838581614ba757fe5b049050809150509392505050565b6060600267ffffffffffffffff81118015614bcf57600080fd5b50604051908082528060200260200182016040528015614bfe5781602001602082028036833780820191505090505b5090503081600081518110614c0f57fe5b602002602001019073ffffffffffffffffffffffffffffffffffffffff16908173ffffffffffffffffffffffffffffffffffffffff1681525050600a60009054906101000a900473ffffffffffffffffffffffffffffffffffffffff1673ffffffffffffffffffffffffffffffffffffffff1663ad5c46486040518163ffffffff1660e01b815260040160206040518083038186803b158015614cb157600080fd5b505afa158015614cc5573d6000803e3d6000fd5b505050506040513d6020811015614cdb57600080fd5b810190808051906020019092919050505081600181518110614cf957fe5b602002602001019073ffffffffffffffffffffffffffffffffffffffff16908173ffffffffffffffffffffffffffffffffffffffff1681525050614d6030600a60009054906101000a900473ffffffffffffffffffffffffffffffffffffffff168461354c565b600a60009054906101000a900473ffffffffffffffffffffffffffffffffffffffff1673ffffffffffffffffffffffffffffffffffffffff1663791ac9478360008430426040518663ffffffff1660e01b815260040180868152602001858152602001806020018473ffffffffffffffffffffffffffffffffffffffff168152602001838152602001828103825285818151815260200191508051906020019060200280838360005b83811015614e24578082015181840152602081019050614e09565b505050509050019650505050505050600060405180830381600087803b158015614e4d57600080fd5b505af1158015614e61573d6000803e3d6000fd5b505050505050565b614e9630600a60009054906101000a900473ffffffffffffffffffffffffffffffffffffffff168461354c565b600a60009054906101000a900473ffffffffffffffffffffffffffffffffffffffff1673ffffffffffffffffffffffffffffffffffffffff1663f305d719823085600080614ee261196a565b426040518863ffffffff1660e01b8152600401808773ffffffffffffffffffffffffffffffffffffffff1681526020018681526020018581526020018481526020018373ffffffffffffffffffffffffffffffffffffffff16815260200182815260200196505050505050506060604051808303818588803b158015614f6757600080fd5b505af1158015614f7b573d6000803e3d6000fd5b50505050506040513d6060811015614f9257600080fd5b810190808051906020019092919080519060200190929190805190602001909291905050505050505050565b60006401000000008310829061506f576040517f08c379a00000000000000000000000000000000000000000000000000000000081526004018080602001828103825283818151815260200191508051906020019080838360005b83811015615034578082015181840152602081019050615019565b50505050905090810190601f1680156150615780820380516001836020036101000a031916815260200191505b509250505060405180910390fd5b5082905092915050565b6040518060400160405280600063ffffffff16815260200160008152509056fe42455032303a207472616e736665722066726f6d20746865207a65726f206164647265737342455032303a20617070726f76652066726f6d20746865207a65726f206164647265737353485554544c453a3a7570646174655472616e73666572546178526174653a205472616e73666572207461782072617465206d757374206e6f742065786365656420746865206d6178696d756d20726174652e53485554544c453a3a64656c656761746542795369673a207369676e6174757265206578706972656453485554544c453a3a64656c656761746542795369673a20696e76616c6964206e6f6e63654f776e61626c653a206e6577206f776e657220697320746865207a65726f206164647265737353485554544c453a3a7472616e736665723a205461782076616c756520696e76616c696453485554544c453a3a7472616e736665724f70657261746f723a206e6577206f70657261746f7220697320746865207a65726f206164647265737353485554544c453a3a616e74695768616c653a205472616e7366657220616d6f756e74206578636565647320746865206d61785472616e73666572416d6f756e7453485554544c453a3a75706461746553687574746c6553776170526f757465723a20496e76616c6964207061697220616464726573732e42455032303a207472616e7366657220616d6f756e74206578636565647320616c6c6f77616e636553485554544c453a3a7570646174654d61785472616e73666572416d6f756e74526174653a204d6178207472616e7366657220616d6f756e742072617465206d757374206e6f742065786365656420746865206d6178696d756d20726174652e53485554544c453a3a6765745072696f72566f7465733a206e6f74207965742064657465726d696e6564536166654d6174683a206d756c7469706c69636174696f6e206f766572666c6f776f70657261746f723a2063616c6c6572206973206e6f7420746865206f70657261746f7242455032303a207472616e7366657220616d6f756e7420657863656564732062616c616e636542455032303a207472616e7366657220746f20746865207a65726f206164647265737342455032303a2064656372656173656420616c6c6f77616e63652062656c6f77207a65726f53485554544c453a3a5f7772697465436865636b706f696e743a20626c6f636b206e756d6265722065786365656473203332206269747353485554544c453a3a7570646174654275726e526174653a204275726e2072617465206d757374206e6f742065786365656420746865206d6178696d756d20726174652e42455032303a20617070726f766520746f20746865207a65726f206164647265737353485554544c453a3a7472616e736665723a204275726e2076616c756520696e76616c696453485554544c453a3a64656c656761746542795369673a20696e76616c6964207369676e6174757265a2646970667358221220605eaac686366955c3d38979a8887e2b0300bbc66defd75028e0baee268dea1164736f6c634300060c0033",
  "source": "// SPDX-License-Identifier: MIT\n\npragma solidity 0.6.12;\n\nimport \"./libs/BEP20.sol\";\n\nimport \"@uniswap/v2-periphery/contracts/interfaces/IUniswapV2Router02.sol\";\nimport \"@uniswap/v2-core/contracts/interfaces/IUniswapV2Pair.sol\";\nimport \"@uniswap/v2-core/contracts/interfaces/IUniswapV2Factory.sol\";\n\n// ShuttleToken with Governance.\ncontract ShuttleToken is BEP20 {\n    // Transfer tax rate in basis points. (default 5%)\n    uint16 public transferTaxRate = 500;\n    // Burn rate % of transfer tax. (default 20% x 5% = 1% of total amount).\n    uint16 public burnRate = 20;\n    // Max transfer tax rate: 10%.\n    uint16 public constant MAXIMUM_TRANSFER_TAX_RATE = 1000;\n    // Burn address\n    address public constant BURN_ADDRESS = 0x000000000000000000000000000000000000dEaD;\n\n    // Max transfer amount rate in basis points. (default is 5% of total supply)\n    uint16 public maxTransferAmountRate = 500;\n    // Addresses that excluded from antiWhale\n    mapping(address => bool) private _excludedFromAntiWhale;\n    // Automatic swap and liquify enabled\n    bool public swapAndLiquifyEnabled = false;\n    // Min amount to liquify. (default 500 SHUTTLEs)\n    uint256 public minAmountToLiquify = 500 ether;\n    // The swap router, modifiable. Will be changed to ShuttleSwap's router when our own AMM release\n    IUniswapV2Router02 public shuttleSwapRouter;\n    // The trading pair\n    address public shuttleSwapPair;  \n    // In swap and liquify\n    bool private _inSwapAndLiquify;\n\n    // The operator can only update the transfer tax rate\n    address private _operator;\n\n    // Events\n    event OperatorTransferred(address indexed previousOperator, address indexed newOperator);\n    event TransferTaxRateUpdated(address indexed operator, uint256 previousRate, uint256 newRate);\n    event BurnRateUpdated(address indexed operator, uint256 previousRate, uint256 newRate);\n    event MaxTransferAmountRateUpdated(address indexed operator, uint256 previousRate, uint256 newRate);\n    event SwapAndLiquifyEnabledUpdated(address indexed operator, bool enabled);\n    event MinAmountToLiquifyUpdated(address indexed operator, uint256 previousAmount, uint256 newAmount);\n    event ShuttleSwapRouterUpdated(address indexed operator, address indexed router, address indexed pair);\n    event SwapAndLiquify(uint256 tokensSwapped, uint256 ethReceived, uint256 tokensIntoLiqudity);\n\n    modifier onlyOperator() {\n        require(_operator == msg.sender, \"operator: caller is not the operator\");\n        _;\n    }\n\n    modifier antiWhale(address sender, address recipient, uint256 amount) {\n        if (maxTransferAmount() > 0) {\n            if (\n                _excludedFromAntiWhale[sender] == false\n                && _excludedFromAntiWhale[recipient] == false\n            ) {\n                require(amount <= maxTransferAmount(), \"SHUTTLE::antiWhale: Transfer amount exceeds the maxTransferAmount\");\n            }\n        }\n        _;\n    }\n\n    modifier lockTheSwap {\n        _inSwapAndLiquify = true;\n        _;\n        _inSwapAndLiquify = false;\n    }\n\n    modifier transferTaxFree {\n        uint16 _transferTaxRate = transferTaxRate;\n        transferTaxRate = 0;\n        _;\n        transferTaxRate = _transferTaxRate;\n    }\n\n    /**\n     * @notice Constructs the ShuttleToken contract.\n     */\n    constructor() public BEP20(\"Shuttle Token\", \"SHUTTLE\") {\n        _operator = _msgSender();\n        emit OperatorTransferred(address(0), _operator);\n\n        _excludedFromAntiWhale[msg.sender] = true;\n        _excludedFromAntiWhale[address(0)] = true;\n        _excludedFromAntiWhale[address(this)] = true;\n        _excludedFromAntiWhale[BURN_ADDRESS] = true;\n    }\n\n    /// @notice Creates `_amount` token to `_to`. Must only be called by the owner (MasterChef).\n    function mint(address _to, uint256 _amount) public onlyOwner {\n        _mint(_to, _amount);\n        _moveDelegates(address(0), _delegates[_to], _amount);\n    }\n\n    /// @dev overrides transfer function to meet tokenomics of SHUTTLE\n    function _transfer(address sender, address recipient, uint256 amount) internal virtual override antiWhale(sender, recipient, amount) {\n        // swap and liquify\n        if (\n            swapAndLiquifyEnabled == true\n            && _inSwapAndLiquify == false\n            && address(shuttleSwapRouter) != address(0)\n            && shuttleSwapPair != address(0)\n            && sender != shuttleSwapPair\n            && sender != owner()\n        ) {\n            swapAndLiquify();\n        }\n\n        if (recipient == BURN_ADDRESS || transferTaxRate == 0) {\n            super._transfer(sender, recipient, amount);\n        } else {\n            // default tax is 5% of every transfer\n            uint256 taxAmount = amount.mul(transferTaxRate).div(10000);\n            uint256 burnAmount = taxAmount.mul(burnRate).div(100);\n            uint256 liquidityAmount = taxAmount.sub(burnAmount);\n            require(taxAmount == burnAmount + liquidityAmount, \"SHUTTLE::transfer: Burn value invalid\");\n\n            // default 95% of transfer sent to recipient\n            uint256 sendAmount = amount.sub(taxAmount);\n            require(amount == sendAmount + taxAmount, \"SHUTTLE::transfer: Tax value invalid\");\n\n            super._transfer(sender, BURN_ADDRESS, burnAmount);\n            super._transfer(sender, address(this), liquidityAmount);\n            super._transfer(sender, recipient, sendAmount);\n            amount = sendAmount;\n        }\n    }\n\n    /// @dev Swap and liquify\n    function swapAndLiquify() private lockTheSwap transferTaxFree {\n        uint256 contractTokenBalance = balanceOf(address(this));\n        uint256 maxTransferAmount = maxTransferAmount();\n        contractTokenBalance = contractTokenBalance > maxTransferAmount ? maxTransferAmount : contractTokenBalance;\n\n        if (contractTokenBalance >= minAmountToLiquify) {\n            // only min amount to liquify\n            uint256 liquifyAmount = minAmountToLiquify;\n\n            // split the liquify amount into halves\n            uint256 half = liquifyAmount.div(2);\n            uint256 otherHalf = liquifyAmount.sub(half);\n\n            // capture the contract's current ETH balance.\n            // this is so that we can capture exactly the amount of ETH that the\n            // swap creates, and not make the liquidity event include any ETH that\n            // has been manually sent to the contract\n            uint256 initialBalance = address(this).balance;\n\n            // swap tokens for ETH\n            swapTokensForEth(half);\n\n            // how much ETH did we just swap into?\n            uint256 newBalance = address(this).balance.sub(initialBalance);\n\n            // add liquidity\n            addLiquidity(otherHalf, newBalance);\n\n            emit SwapAndLiquify(half, newBalance, otherHalf);\n        }\n    }\n\n    /// @dev Swap tokens for eth\n    function swapTokensForEth(uint256 tokenAmount) private {\n        // generate the shuttleSwap pair path of token -> weth\n        address[] memory path = new address[](2);\n        path[0] = address(this);\n        path[1] = shuttleSwapRouter.WETH();\n\n        _approve(address(this), address(shuttleSwapRouter), tokenAmount);\n\n        // make the swap\n        shuttleSwapRouter.swapExactTokensForETHSupportingFeeOnTransferTokens(\n            tokenAmount,\n            0, // accept any amount of ETH\n            path,\n            address(this),\n            block.timestamp\n        );\n    }\n\n    /// @dev Add liquidity\n    function addLiquidity(uint256 tokenAmount, uint256 ethAmount) private {\n        // approve token transfer to cover all possible scenarios\n        _approve(address(this), address(shuttleSwapRouter), tokenAmount);\n\n        // add the liquidity\n        shuttleSwapRouter.addLiquidityETH{value: ethAmount}(\n            address(this),\n            tokenAmount,\n            0, // slippage is unavoidable\n            0, // slippage is unavoidable\n            operator(),\n            block.timestamp\n        );\n    }\n\n    /**\n     * @dev Returns the max transfer amount.\n     */\n    function maxTransferAmount() public view returns (uint256) {\n        return totalSupply().mul(maxTransferAmountRate).div(10000);\n    }\n\n    /**\n     * @dev Returns the address is excluded from antiWhale or not.\n     */\n    function isExcludedFromAntiWhale(address _account) public view returns (bool) {\n        return _excludedFromAntiWhale[_account];\n    }\n\n    // To receive BNB from shuttleSwapRouter when swapping\n    receive() external payable {}\n\n    /**\n     * @dev Update the transfer tax rate.\n     * Can only be called by the current operator.\n     */\n    function updateTransferTaxRate(uint16 _transferTaxRate) public onlyOperator {\n        require(_transferTaxRate <= MAXIMUM_TRANSFER_TAX_RATE, \"SHUTTLE::updateTransferTaxRate: Transfer tax rate must not exceed the maximum rate.\");\n        emit TransferTaxRateUpdated(msg.sender, transferTaxRate, _transferTaxRate);\n        transferTaxRate = _transferTaxRate;\n    }\n\n    /**\n     * @dev Update the burn rate.\n     * Can only be called by the current operator.\n     */\n    function updateBurnRate(uint16 _burnRate) public onlyOperator {\n        require(_burnRate <= 100, \"SHUTTLE::updateBurnRate: Burn rate must not exceed the maximum rate.\");\n        emit BurnRateUpdated(msg.sender, burnRate, _burnRate);\n        burnRate = _burnRate;\n    }\n\n    /**\n     * @dev Update the max transfer amount rate.\n     * Can only be called by the current operator.\n     */\n    function updateMaxTransferAmountRate(uint16 _maxTransferAmountRate) public onlyOperator {\n        require(_maxTransferAmountRate <= 1000, \"SHUTTLE::updateMaxTransferAmountRate: Max transfer amount rate must not exceed the maximum rate.\");\n        emit MaxTransferAmountRateUpdated(msg.sender, maxTransferAmountRate, _maxTransferAmountRate);\n        maxTransferAmountRate = _maxTransferAmountRate;\n    }\n\n    /**\n     * @dev Update the min amount to liquify.\n     * Can only be called by the current operator.\n     */\n    function updateMinAmountToLiquify(uint256 _minAmount) public onlyOperator {\n        emit MinAmountToLiquifyUpdated(msg.sender, minAmountToLiquify, _minAmount);\n        minAmountToLiquify = _minAmount;\n    }\n\n    /**\n     * @dev Exclude or include an address from antiWhale.\n     * Can only be called by the current operator.\n     */\n    function setExcludedFromAntiWhale(address _account, bool _excluded) public onlyOperator {\n        _excludedFromAntiWhale[_account] = _excluded;\n    }\n\n    /**\n     * @dev Update the swapAndLiquifyEnabled.\n     * Can only be called by the current operator.\n     */\n    function updateSwapAndLiquifyEnabled(bool _enabled) public onlyOperator {\n        emit SwapAndLiquifyEnabledUpdated(msg.sender, _enabled);\n        swapAndLiquifyEnabled = _enabled;\n    }\n\n    /**\n     * @dev Update the swap router.\n     * Can only be called by the current operator.\n     */\n    function updateShuttleSwapRouter(address _router) public onlyOperator {\n        shuttleSwapRouter = IUniswapV2Router02(_router);\n        shuttleSwapPair = IUniswapV2Factory(shuttleSwapRouter.factory()).getPair(address(this), shuttleSwapRouter.WETH());\n        require(shuttleSwapPair != address(0), \"SHUTTLE::updateShuttleSwapRouter: Invalid pair address.\");\n        emit ShuttleSwapRouterUpdated(msg.sender, address(shuttleSwapRouter), shuttleSwapPair);\n    }\n\n    /**\n     * @dev Returns the address of the current operator.\n     */\n    function operator() public view returns (address) {\n        return _operator;\n    }\n\n    /**\n     * @dev Transfers operator of the contract to a new account (`newOperator`).\n     * Can only be called by the current operator.\n     */\n    function transferOperator(address newOperator) public onlyOperator {\n        require(newOperator != address(0), \"SHUTTLE::transferOperator: new operator is the zero address\");\n        emit OperatorTransferred(_operator, newOperator);\n        _operator = newOperator;\n    }\n\n    // Copied and modified from YAM code:\n    // https://github.com/yam-finance/yam-protocol/blob/master/contracts/token/YAMGovernanceStorage.sol\n    // https://github.com/yam-finance/yam-protocol/blob/master/contracts/token/YAMGovernance.sol\n    // Which is copied and modified from COMPOUND:\n    // https://github.com/compound-finance/compound-protocol/blob/master/contracts/Governance/Comp.sol\n\n    /// @dev A record of each accounts delegate\n    mapping (address => address) internal _delegates;\n\n    /// @notice A checkpoint for marking number of votes from a given block\n    struct Checkpoint {\n        uint32 fromBlock;\n        uint256 votes;\n    }\n\n    /// @notice A record of votes checkpoints for each account, by index\n    mapping (address => mapping (uint32 => Checkpoint)) public checkpoints;\n\n    /// @notice The number of checkpoints for each account\n    mapping (address => uint32) public numCheckpoints;\n\n    /// @notice The EIP-712 typehash for the contract's domain\n    bytes32 public constant DOMAIN_TYPEHASH = keccak256(\"EIP712Domain(string name,uint256 chainId,address verifyingContract)\");\n\n    /// @notice The EIP-712 typehash for the delegation struct used by the contract\n    bytes32 public constant DELEGATION_TYPEHASH = keccak256(\"Delegation(address delegatee,uint256 nonce,uint256 expiry)\");\n\n    /// @notice A record of states for signing / validating signatures\n    mapping (address => uint) public nonces;\n\n      /// @notice An event thats emitted when an account changes its delegate\n    event DelegateChanged(address indexed delegator, address indexed fromDelegate, address indexed toDelegate);\n\n    /// @notice An event thats emitted when a delegate account's vote balance changes\n    event DelegateVotesChanged(address indexed delegate, uint previousBalance, uint newBalance);\n\n    /**\n     * @notice Delegate votes from `msg.sender` to `delegatee`\n     * @param delegator The address to get delegatee for\n     */\n    function delegates(address delegator)\n        external\n        view\n        returns (address)\n    {\n        return _delegates[delegator];\n    }\n\n   /**\n    * @notice Delegate votes from `msg.sender` to `delegatee`\n    * @param delegatee The address to delegate votes to\n    */\n    function delegate(address delegatee) external {\n        return _delegate(msg.sender, delegatee);\n    }\n\n    /**\n     * @notice Delegates votes from signatory to `delegatee`\n     * @param delegatee The address to delegate votes to\n     * @param nonce The contract state required to match the signature\n     * @param expiry The time at which to expire the signature\n     * @param v The recovery byte of the signature\n     * @param r Half of the ECDSA signature pair\n     * @param s Half of the ECDSA signature pair\n     */\n    function delegateBySig(\n        address delegatee,\n        uint nonce,\n        uint expiry,\n        uint8 v,\n        bytes32 r,\n        bytes32 s\n    )\n        external\n    {\n        bytes32 domainSeparator = keccak256(\n            abi.encode(\n                DOMAIN_TYPEHASH,\n                keccak256(bytes(name())),\n                getChainId(),\n                address(this)\n            )\n        );\n\n        bytes32 structHash = keccak256(\n            abi.encode(\n                DELEGATION_TYPEHASH,\n                delegatee,\n                nonce,\n                expiry\n            )\n        );\n\n        bytes32 digest = keccak256(\n            abi.encodePacked(\n                \"\\x19\\x01\",\n                domainSeparator,\n                structHash\n            )\n        );\n\n        address signatory = ecrecover(digest, v, r, s);\n        require(signatory != address(0), \"SHUTTLE::delegateBySig: invalid signature\");\n        require(nonce == nonces[signatory]++, \"SHUTTLE::delegateBySig: invalid nonce\");\n        require(now <= expiry, \"SHUTTLE::delegateBySig: signature expired\");\n        return _delegate(signatory, delegatee);\n    }\n\n    /**\n     * @notice Gets the current votes balance for `account`\n     * @param account The address to get votes balance\n     * @return The number of current votes for `account`\n     */\n    function getCurrentVotes(address account)\n        external\n        view\n        returns (uint256)\n    {\n        uint32 nCheckpoints = numCheckpoints[account];\n        return nCheckpoints > 0 ? checkpoints[account][nCheckpoints - 1].votes : 0;\n    }\n\n    /**\n     * @notice Determine the prior number of votes for an account as of a block number\n     * @dev Block number must be a finalized block or else this function will revert to prevent misinformation.\n     * @param account The address of the account to check\n     * @param blockNumber The block number to get the vote balance at\n     * @return The number of votes the account had as of the given block\n     */\n    function getPriorVotes(address account, uint blockNumber)\n        external\n        view\n        returns (uint256)\n    {\n        require(blockNumber < block.number, \"SHUTTLE::getPriorVotes: not yet determined\");\n\n        uint32 nCheckpoints = numCheckpoints[account];\n        if (nCheckpoints == 0) {\n            return 0;\n        }\n\n        // First check most recent balance\n        if (checkpoints[account][nCheckpoints - 1].fromBlock <= blockNumber) {\n            return checkpoints[account][nCheckpoints - 1].votes;\n        }\n\n        // Next check implicit zero balance\n        if (checkpoints[account][0].fromBlock > blockNumber) {\n            return 0;\n        }\n\n        uint32 lower = 0;\n        uint32 upper = nCheckpoints - 1;\n        while (upper > lower) {\n            uint32 center = upper - (upper - lower) / 2; // ceil, avoiding overflow\n            Checkpoint memory cp = checkpoints[account][center];\n            if (cp.fromBlock == blockNumber) {\n                return cp.votes;\n            } else if (cp.fromBlock < blockNumber) {\n                lower = center;\n            } else {\n                upper = center - 1;\n            }\n        }\n        return checkpoints[account][lower].votes;\n    }\n\n    function _delegate(address delegator, address delegatee)\n        internal\n    {\n        address currentDelegate = _delegates[delegator];\n        uint256 delegatorBalance = balanceOf(delegator); // balance of underlying SHUTTLEs (not scaled);\n        _delegates[delegator] = delegatee;\n\n        emit DelegateChanged(delegator, currentDelegate, delegatee);\n\n        _moveDelegates(currentDelegate, delegatee, delegatorBalance);\n    }\n\n    function _moveDelegates(address srcRep, address dstRep, uint256 amount) internal {\n        if (srcRep != dstRep && amount > 0) {\n            if (srcRep != address(0)) {\n                // decrease old representative\n                uint32 srcRepNum = numCheckpoints[srcRep];\n                uint256 srcRepOld = srcRepNum > 0 ? checkpoints[srcRep][srcRepNum - 1].votes : 0;\n                uint256 srcRepNew = srcRepOld.sub(amount);\n                _writeCheckpoint(srcRep, srcRepNum, srcRepOld, srcRepNew);\n            }\n\n            if (dstRep != address(0)) {\n                // increase new representative\n                uint32 dstRepNum = numCheckpoints[dstRep];\n                uint256 dstRepOld = dstRepNum > 0 ? checkpoints[dstRep][dstRepNum - 1].votes : 0;\n                uint256 dstRepNew = dstRepOld.add(amount);\n                _writeCheckpoint(dstRep, dstRepNum, dstRepOld, dstRepNew);\n            }\n        }\n    }\n\n    function _writeCheckpoint(\n        address delegatee,\n        uint32 nCheckpoints,\n        uint256 oldVotes,\n        uint256 newVotes\n    )\n        internal\n    {\n        uint32 blockNumber = safe32(block.number, \"SHUTTLE::_writeCheckpoint: block number exceeds 32 bits\");\n\n        if (nCheckpoints > 0 && checkpoints[delegatee][nCheckpoints - 1].fromBlock == blockNumber) {\n            checkpoints[delegatee][nCheckpoints - 1].votes = newVotes;\n        } else {\n            checkpoints[delegatee][nCheckpoints] = Checkpoint(blockNumber, newVotes);\n            numCheckpoints[delegatee] = nCheckpoints + 1;\n        }\n\n        emit DelegateVotesChanged(delegatee, oldVotes, newVotes);\n    }\n\n    function safe32(uint n, string memory errorMessage) internal pure returns (uint32) {\n        require(n < 2**32, errorMessage);\n        return uint32(n);\n    }\n\n    function getChainId() internal pure returns (uint) {\n        uint256 chainId;\n        assembly { chainId := chainid() }\n        return chainId;\n    }\n}",
  "sourcePath": "/home/kaneda/Documents/shuttle-farms-0.1/contracts/ShuttleToken.sol",
  "compiler": {
    "name": "solc",
    "version": "0.6.12+commit.27d51765.Emscripten.clang"
  },
  "schemaVersion": "3.0.23",
  "updatedAt": "2021-06-14T22:37:43.675Z",
  "networkType": "ethereum",
  "devdoc": {
    "kind": "dev",
    "methods": {
      "allowance(address,address)": {
        "details": "See {BEP20-allowance}."
      },
      "approve(address,uint256)": {
        "details": "See {BEP20-approve}. Requirements: - `spender` cannot be the zero address."
      },
      "balanceOf(address)": {
        "details": "See {BEP20-balanceOf}."
      },
      "decimals()": {
        "details": "Returns the token decimals."
      },
      "decreaseAllowance(address,uint256)": {
        "details": "Atomically decreases the allowance granted to `spender` by the caller. This is an alternative to {approve} that can be used as a mitigation for problems described in {BEP20-approve}. Emits an {Approval} event indicating the updated allowance. Requirements: - `spender` cannot be the zero address. - `spender` must have allowance for the caller of at least `subtractedValue`."
      },
      "delegate(address)": {
        "params": {
          "delegatee": "The address to delegate votes to"
        }
      },
      "delegateBySig(address,uint256,uint256,uint8,bytes32,bytes32)": {
        "params": {
          "delegatee": "The address to delegate votes to",
          "expiry": "The time at which to expire the signature",
          "nonce": "The contract state required to match the signature",
          "r": "Half of the ECDSA signature pair",
          "s": "Half of the ECDSA signature pair",
          "v": "The recovery byte of the signature"
        }
      },
      "delegates(address)": {
        "params": {
          "delegator": "The address to get delegatee for"
        }
      },
      "getCurrentVotes(address)": {
        "params": {
          "account": "The address to get votes balance"
        },
        "returns": {
          "_0": "The number of current votes for `account`"
        }
      },
      "getOwner()": {
        "details": "Returns the bep token owner."
      },
      "getPriorVotes(address,uint256)": {
        "details": "Block number must be a finalized block or else this function will revert to prevent misinformation.",
        "params": {
          "account": "The address of the account to check",
          "blockNumber": "The block number to get the vote balance at"
        },
        "returns": {
          "_0": "The number of votes the account had as of the given block"
        }
      },
      "increaseAllowance(address,uint256)": {
        "details": "Atomically increases the allowance granted to `spender` by the caller. This is an alternative to {approve} that can be used as a mitigation for problems described in {BEP20-approve}. Emits an {Approval} event indicating the updated allowance. Requirements: - `spender` cannot be the zero address."
      },
      "isExcludedFromAntiWhale(address)": {
        "details": "Returns the address is excluded from antiWhale or not."
      },
      "maxTransferAmount()": {
        "details": "Returns the max transfer amount."
      },
      "mint(uint256)": {
        "details": "Creates `amount` tokens and assigns them to `msg.sender`, increasing the total supply. Requirements - `msg.sender` must be the token owner"
      },
      "name()": {
        "details": "Returns the token name."
      },
      "operator()": {
        "details": "Returns the address of the current operator."
      },
      "owner()": {
        "details": "Returns the address of the current owner."
      },
      "renounceOwnership()": {
        "details": "Leaves the contract without owner. It will not be possible to call `onlyOwner` functions anymore. Can only be called by the current owner. NOTE: Renouncing ownership will leave the contract without an owner, thereby removing any functionality that is only available to the owner."
      },
      "setExcludedFromAntiWhale(address,bool)": {
        "details": "Exclude or include an address from antiWhale. Can only be called by the current operator."
      },
      "symbol()": {
        "details": "Returns the token symbol."
      },
      "totalSupply()": {
        "details": "See {BEP20-totalSupply}."
      },
      "transfer(address,uint256)": {
        "details": "See {BEP20-transfer}. Requirements: - `recipient` cannot be the zero address. - the caller must have a balance of at least `amount`."
      },
      "transferFrom(address,address,uint256)": {
        "details": "See {BEP20-transferFrom}. Emits an {Approval} event indicating the updated allowance. This is not required by the EIP. See the note at the beginning of {BEP20}; Requirements: - `sender` and `recipient` cannot be the zero address. - `sender` must have a balance of at least `amount`. - the caller must have allowance for `sender`'s tokens of at least `amount`."
      },
      "transferOperator(address)": {
        "details": "Transfers operator of the contract to a new account (`newOperator`). Can only be called by the current operator."
      },
      "transferOwnership(address)": {
        "details": "Transfers ownership of the contract to a new account (`newOwner`). Can only be called by the current owner."
      },
      "updateBurnRate(uint16)": {
        "details": "Update the burn rate. Can only be called by the current operator."
      },
      "updateMaxTransferAmountRate(uint16)": {
        "details": "Update the max transfer amount rate. Can only be called by the current operator."
      },
      "updateMinAmountToLiquify(uint256)": {
        "details": "Update the min amount to liquify. Can only be called by the current operator."
      },
      "updateShuttleSwapRouter(address)": {
        "details": "Update the swap router. Can only be called by the current operator."
      },
      "updateSwapAndLiquifyEnabled(bool)": {
        "details": "Update the swapAndLiquifyEnabled. Can only be called by the current operator."
      },
      "updateTransferTaxRate(uint16)": {
        "details": "Update the transfer tax rate. Can only be called by the current operator."
      }
    },
    "stateVariables": {
      "_delegates": {
        "details": "A record of each accounts delegate"
      }
    },
    "version": 1
  },
  "userdoc": {
    "events": {
      "DelegateChanged(address,address,address)": {
        "notice": "An event thats emitted when an account changes its delegate"
      },
      "DelegateVotesChanged(address,uint256,uint256)": {
        "notice": "An event thats emitted when a delegate account's vote balance changes"
      }
    },
    "kind": "user",
    "methods": {
      "DELEGATION_TYPEHASH()": {
        "notice": "The EIP-712 typehash for the delegation struct used by the contract"
      },
      "DOMAIN_TYPEHASH()": {
        "notice": "The EIP-712 typehash for the contract's domain"
      },
      "checkpoints(address,uint32)": {
        "notice": "A record of votes checkpoints for each account, by index"
      },
      "constructor": "Constructs the ShuttleToken contract.",
      "delegate(address)": {
        "notice": "Delegate votes from `msg.sender` to `delegatee`"
      },
      "delegateBySig(address,uint256,uint256,uint8,bytes32,bytes32)": {
        "notice": "Delegates votes from signatory to `delegatee`"
      },
      "delegates(address)": {
        "notice": "Delegate votes from `msg.sender` to `delegatee`"
      },
      "getCurrentVotes(address)": {
        "notice": "Gets the current votes balance for `account`"
      },
      "getPriorVotes(address,uint256)": {
        "notice": "Determine the prior number of votes for an account as of a block number"
      },
      "mint(address,uint256)": {
        "notice": "Creates `_amount` token to `_to`. Must only be called by the owner (MasterChef)."
      },
      "nonces(address)": {
        "notice": "A record of states for signing / validating signatures"
      },
      "numCheckpoints(address)": {
        "notice": "The number of checkpoints for each account"
      }
    },
    "version": 1
  }
}